:1000000018370120391F030087980500251F0300BA
:10001000251F0300251F0300251F0300251F0300C4
:100020000000000000000000000000001D20030090
:10003000251F03000000000025220300251F0300E8
:10004000C1220300C1220300C1220300C122030018
:10005000C1220300C1220300C1220300C122030008
:10006000C1220300C1220300C1220300C1220300F8
:10007000C1220300C1220300C1220300C1220300E8
:10025000C1220300B92A0600C1220300C122030003
:10026000C1220300C1220300E52A0600C1220300C7
:10027000C1220300C1220300C1220300C1220300E6
:10028000C1220300C1220300C1220300C1220300D6
:10029000C1220300C1220300C1220300C1220300C6
:1002A000C1220300C1220300C1220300C1220300B6
:1002B000C1220300C1220300C1220300C1220300A6
:1002C000C1220300C1220300C1220300C122030096
:1002D000C1220300C1220300C1220300C122030086
:1002E000C1220300C1220300C1220300C122030076
:1002F000C1220300C1220300C1220300C122030066
:10030000C1220300C1220300C1220300C122030055
:10031000C1220300C1220300C1220300C122030045
:10032000C1220300C1220300C1220300C122030035
:10033000C1220300C1220300C1220300C122030025
:10034000C1220300C1220300C1220300C122030015
:10035000C1220300C1220300C1220300C122030005
:10036000C1220300C1220300C1220300C1220300F5
:10037000C1220300C1220300C1220300C1220300E5
:10038000C1220300C1220300C1220300C1220300D5
:10039000C1220300C1220300C1220300C1220300C5
:1003A000C1220300C1220300C1220300C1220300B5
:1003B000C1220300C1220300C1220300C1220300A5
:1003C000C1220300C1220300C1220300C122030095
:1003D000C1220300CF2A0600C1220300C12203006C
:1003E000C1220300C1220300C1220300C122030075
:1003F000C1220300C1220300C1220300C122030065
:10040000C1220300C1220300C1220300C122030054
:10041000C1220300C1220300C1220300C122030044
:10042000C1220300C1220300C1220300C122030034
:10043000C1220300C1220300C1220300C122030024
:10044000C1220300C1220300C1220300C122030014
:10045000C1220300C1220300C1220300C122030004
:10046000C1220300C1220300C1220300C1220300F4
:10047000C1220300C1220300C1220300C1220300E4
:10048000C1220300C1220300C1220300C1220300D4
:10049000C1220300C1220300C1220300C1220300C4
:1004A000C1220300C1220300C1220300C1220300B4
:1004B000C1220300C1220300C1220300C1220300A4
:0804C000C1220300C122030068
:1004C800054B00221B78826001330260034A4260B8
:1004D800C371FF2303727047A81100208001080030
:1004E800064A074B02604FF426729B7882800822E6
:1004F800C371002382710372704700BF9F480200D6
:10050800A8110020064A074B02604FF44472DB78BA
:1005180082800822C371002382710372704700BF72
:10052800F3450200A8110020064A074B02604FF469
:10053800B072DB7A82800822C371FF238271037252
:10054800704700BFDB3E0200A8110020084B094A93
:100558001B7892F828201B020749C27103F52E73F5
:100568000160838008238371FF230372704700BFF3
:10057800D4120020A811002079E30100074A9378DB
:10058800D2781344064A02604FF4BA72C371FF234B
:100598008280042203728271704700BFA811002074
:1005A8008FE30100064A9378D278134400228260D0
:1005B8000260044A4260C371FF230372704700BFA0
:1005C800A811002070000800094991F829308A789C
:1005D80003EB4303C978DB000A4400211033C271DE
:1005E80081608380042301608371FF230372704755
:1005F800A811002008B505F001FA08F017FC054914
:100608000D2000F0B9FC04490E20BDE8084000F0B8
:10061800B3BC00BF55050000850500002DE9F34176
:10062800C41D0028064624F007040CBF00202046FD
:1006380000F0B4FC071E04DA6FF00B0002B0BDE84E
:10064800F081374DE988A88803316B7A03302A7A1C
:1006580089B280B21CF044FB0028EDDB3C44A97849
:10066800EB78002E04F10304194424F0030400FB82
:1006780001F10CBF0020204600F03EFE20440EB9D8
:100688000028D9DBEA7A0446B2B1EB7B697C1344D3
:100698001944FF29D0D80330002EAA89C9B220F006
:1006A80003040CBF0020204600F098FE0028C3DB9E
:1006B80004440EB9002CBFDB012000F065FCB0B18A
:1006C800A97BA1B195F82A3033B340234FF4817246
:1006D8000734002E24F007040CBF0020204604F045
:1006E80037F80028A8DB04440EB9002CA4DBAB7A49
:1006F800FBB1EB7AB3B10734002EA97A24F00704D2
:100708000CBF002020460AF067FE002894DB044452
:100718007EB9002C0DDA8FE725232822D8E700BF01
:10072800A8110020012000F02FFC10B1AB7B002B9A
:10073800E1D1734B1B6893B1A97D81B10334002EBD
:10074800EA7D24F003040CBF0020204698470028C7
:10075800FFF672AF044416B9002CFFF66DAF694B73
:100768001B688BB1297C79B10334002E24F0030473
:100778000CBF0020204698470028FFF65DAF0444D0
:1007880016B9002CFFF658AF5F4B1F68B7B1697CEC
:10079800A1B10334002E2B7D24F0030408BF0020F0
:1007A800009318BF2046EB7CAA7CB8470028FFF6C8
:1007B80043AF044416B9002CFFF63EAF072000F003
:1007C800E3FB98B1A97D89B10334002E2A7E24F079
:1007D80003040CBF0020204600F0EEFE0028FFF6C0
:1007E8002BAF044416B9002CFFF626AFB6FA86F7ED
:1007F80095F823007F09A0B103346B7FA97E24F00C
:10080800070419443B4644F00404C9B2224600F0E8
:1008180013FF0028FFF610AF044416B9002CFFF6AA
:100828000BAF95F8241000294CD004F10708002ECE
:10083800EA8C28F007080CBF002040461CF064FA38
:10084800041EFFF6F9AE4444002E3ED1002CFFF6FC
:10085800F3AEA97F002945D095F82230002B41D06E
:100868002A8C0734002E02F1240224F007080CBF5A
:100878000020404692B21CF047FA0028FFF6DCAE92
:10088800404416B90028FFF6D7AE03302B7FA97E67
:1008980020F0070019443B4640F0040495F8220074
:1008A800C9B2224600F0BAFE0028FFF6C5AE0444DD
:1008B80086B9002CFFF6C0AEEB6AF3B1C6B1EC62A4
:1008C8000020BBE6002EC4D08846E98C404612F0D2
:1008D800BDFFBEE72A8C4046A97F083292B212F0CB
:1008E800BBFFE9E7002EE7D0002211461046F6E7E5
:1008F80028343FF5A1AE2046A0E6002EE0D1FAE765
:10090800FC1E0020001F0020041F00201FB572B627
:10091800194B1C6BECB9BFF34F8F1849184BCA68B9
:1009280002F4E0621343CB60BFF34F8F00BFFDE7D3
:10093800B2FBF6F22B465D1C002AF9D1DBB203F1BB
:1009480010056D4405F80C2C0A2233B901A8A047FC
:10095800E1E7024600230A26EDE7013BDBB203F19B
:1009680010050DEB0506B0FBF2F502FB1500303063
:1009780006F80C0C2846E8E7A811002000ED00E076
:100988000400FA0513B5124C68462389ADF8003007
:10099800E388ADF80430A388ADF8023007F038FDDD
:1009A80018B1FB219C20FFF7B1FF207D07F094FDD3
:1009B80008B1FE21F6E7E07C07F088FD08B1FF21C9
:1009C800F0E794F8290010F041FD02B010BD00BF17
:1009D800A811002070B50546002855D01BF064F911
:1009E80018B94FF0FF34204670BD19F03DFEB0F540
:1009F800FA7FF6D8264C012625630025284684F878
:100A08003450257084F82A50E56212F043F91A220E
:100A1800294604F10F0025F068F81B23082103225A
:100A2800A3802846E3800223A1721F216372E37525
:100A3800F72322722384FB23A2734922E3840A2327
:100A4800A1812946E27484F82930A670E670E6721E
:100A5800A674267605F014F82A463146304604F086
:100A6800E1FF044620B140F2B6319C20FFF74EFF6B
:100A7800014604F0F3FFEFF3108572B600F002FEB2
:100A8800002DB0D162B6AEE76FF01504ABE700BF3A
:100A9800A811002038B51446002840F0EE80784DA3
:100AA80095F83430032B00F0E58019B312B96FF0D4
:100AB800150038BD0139172900F2DF80DFE811F091
:100AC800180029002C0042006C00750094004800B2
:100AD80078007B008E004E005400620067009A0088
:100AE8009D00AC00AF00B200A300B500B900D20071
:100AF8001378AB700020FFF791FD0028B7BF0123E2
:100B080002236FF00B0085F83430A8BF85F8343025
:100B1800CFE71378EB70EDE71379002BC7D0537943
:100B2800002BC4D01288FB2AC1D863881B3B9BB218
:100B3800E02BBCD81A2ABAD92368A2886B60514B1B
:100B48009A80D7E71378EA7B9342B0D3EB72D1E768
:100B58001378EA7A9342AAD8EB73CBE71378EA7A48
:100B68009342A4D86B74C5E71378002B9FD05378B1
:100B7800013BDBB2F82B9AD8138892786B82424BF0
:100B88009A70B7E71078687510F0B0FAB2E7137882
:100B9800002B8CD02B76ADE7012000F0F5F92378F7
:100BA80008B1012B83D9AB73A4E71388AB81A1E704
:100BB8001378AB759EE7072000F0E6F918B923789B
:100BC800012B7FF674AF072000F0DEF918B1237807
:100BD800002B3FF46CAF2378EB758BE71378082B69
:100BE8003FF665AF2B7485E71388FF2B3FF65FAFA1
:100BF800AB727FE713786B767CE713780E2B3FF6A2
:100C080056AFAB7676E72368204AC5F81E3063688E
:100C18005360238913816DE71378EB766AE71378BD
:100C28006B7767E713782B7764E7137885F82830B4
:100C380060E704F0F1FE98B1007900F001026178F4
:100C4800207804F0EFFE00287FF433AF6378012B9F
:100C58007FF650AF12F066FC00287FF44BAF26E712
:100C68000246ECE713785A1E092A3FF620AF85F8AA
:100C780029303FE74FF0FF301BE76FF02C0018E7F3
:100C8800A8110020AC110020BA110020C6110020C4
:100C9800F8B50D46064630B329B311F0070422D142
:100CA800124F97F83430012B02D16FF00B00F8BDCA
:100CB800032B02D14FF0FF30F9E700F01BFD0028AD
:100CC800F8D02846FFF7AAFC0028EEDB24F0C2FA89
:100CD8003046F96A08F0C8F8FFF754FE03232046A7
:100CE80087F83430E3E76FF01500E0E7A81100203B
:100CF80010B5074C94F83430032B03D108F0CCF826
:100D080009F08CF81CF04CF9002084F8340010BD70
:100D1800A811002008B508F017F803490320BDE81A
:100D2800084000F029B900BF3105000008B508F0F7
:100D380025F803490220BDE8084000F01DB900BFAE
:100D48000D05000008B508F03BF80649012000F041
:100D580013F90549002000F00FF9044B012283F82C
:100D68002A2008BDC9040000E9040000A8110020D9
:100D780008B508F047F807F0D9FB03490F20BDE88C
:100D8800084000F0F9B800BFAD05000008B508F04C
:100D980039F807F0EBFB03490F20BDE8084000F0E5
:100DA800EBB800BFAD05000008B50449122000F0FB
:100DB800E3F8BDE8084007F0F9BB00BFD105000023
:100DC80008B50449122000F0D7F8BDE8084007F03C
:100DD800FFBB00BFD1050000074B4FF0FF3141F6C4
:100DE800FF72C3E9001205490022C1E900221F2150
:100DF800C3E90212704700BF60000020E011002024
:100E08003F280CD801380B4BC0F3421200F01F00EA
:100E180053F8223023FA00F000F001007047FF2851
:100E280006D04038044BC0F3421200F01F00EFE731
:100E38000120704760000020E0110020074B0146A8
:100E4800006849681A4603C240F48C2200201A60E0
:100E580041F0107242F4FF625A607047600000204F
:100E68000246034B0068516803C30020704700BF67
:100E7800E01100200246034B0068516803C30020BC
:100E8800704700BF680000200138064BC0F34212CB
:100E980000F01F0003EB82039B6823FA00F000F0C8
:100EA80001007047600000200A8870B595B2C67CC2
:100EB800C2F30E020488023602F118033444C35AFE
:100EC800A4B233442344013BB3FBF4F303FB0422F1
:100ED800438892B29342044B8BBF2B40AB431343DE
:100EE8009BB20B8070BD00BF0080FFFF4A1E062A20
:100EF80008B50346084604D84FF4D1711520FFF70A
:100F080005FD094A914202D940F2A311F6E711B949
:100F180003B1196008BD2BB11B680022C3E9012188
:100F28001A1D1A600430F5E7FAFFFF7F10B5114B60
:100F380000EB41041A786389B3FBF2F303FB022345
:100F4800013A1A44B2F5706F0279807828BF0023FD
:100F58001A440B18B2FBF0F100FB11215B1AB3FB2A
:100F6800F0F100FB113313446FEA43436FEA534334
:100F7800638110BDE8110020024B03EB8003596028
:100F8800704700BFE8110020034B03EB800358684B
:100F9800003818BF01207047E81100202DE9F04FF4
:100FA80010F0070A85B0054604D040F26F111720EB
:100FB800FFF7ACFC534F04464FF0010B07F1540602
:100FC800B146B04657F8043B8DF80BA03BB101A8D9
:100FD80098479DF80A30082B01D9F521E7E79DF8D5
:100FE8000B1041BB05B131604F4506F10406E9D14C
:100FF800002D6FD00022DFF810911427964689F84B
:10100800002058F827A0013FBAF1000F55D09AF8F0
:1010180004609AF802C0FF2E60D039460023481CAD
:1010280038D19C44BCF1FF0F3FD90AB189F800E0E0
:101038004FF49A71BBE79DF80AC04B1D60465A00F1
:1010480004EB4303022838BF0220441E40422344D5
:10105800BDF808406444CCF1000C0340013C04EAAC
:101068000C04B4F5803F02D340F205119FE775B137
:101078009A1A32609170148082F803B09DF80C00BF
:10108800107101984FEA104C1081A2F806C004FBB9
:101098000134A9E758F8210028B190F804B0B34505
:1010A80004BF80781B180139B9E7DBB2E6458AF836
:1010B80004303CBF5FFA8CFE01227B1CA1D10AB12F
:1010C80089F800E0142640F6FF6A58F82670B7B988
:1010D800013EFAD2601B05B0BDE8F08F0023E5E7BA
:1010E80007EB410309F101093846A3F80AA0FFF705
:1010F8001DFF5FFA89F1BB788B42F1D8E8E74FF022
:101108000009F6E7EC110020E811002038B54FF689
:10111800FF7302460380184B03EB8103986DA8B157
:1011280084780379B3FBF4F104FB1133DBB219467D
:1011380000EB4105B5F90A50002D0EDB0131B1FB7A
:10114800F4F504FB1511C9B28B42F1D1002038BD6A
:101158006381BDE838401BF090BD00EB4104638912
:10116800C3F30E031380C278002AF1D14FF4E5715E
:101178001720FFF7CBFB00BFE81100201C4B03EB47
:10118800810370B59C6D054644B3030404D54FF440
:10119800EC711720FFF7BAFB014620461BF050FD03
:1011A800FF28014604D02046BDE870401BF065BD0D
:1011B800A078B5FBF0F300FB1353DBB219460A1D08
:1011C80004EB4206B6F90260002E09DB0131B1FBDF
:1011D800F0F200FB1211C9B28B42F0D1002070BDB1
:1011E8008B4201D00023E37004EB42025580DAE71A
:1011F800E8110020094B03EB8103014610B59C6DF3
:1012080020461BF01DFDFF28014604D02046BDE8FE
:1012180010401BF032BD002010BD00BFE8110020B7
:10122800F8B5104B074603EB810301469C6D204639
:101238001BF006FDFF28054611D0E288238953EAF2
:10124800024606D0014620461BF017FD01463846E7
:10125800B04720462946FFF769FE0020F8BD052063
:10126800FCE700BFE811002038B50E4B0446827930
:1012780003EB8203986D08B9052038BD8278E179BF
:101288009142F9D24B1CE37100EB41035D89B3F93C
:101298000A30002BF3DBA5801BF0EFFC2060002058
:1012A800EBE700BFE811002008B5124B03EB810300
:1012B8009A6D22B940F246211720FFF727FB917853
:1012C800831A481DA3EB40031088B3FBF0F3002BEF
:1012D80001DB994202DC40F24921EDE702EB4302CF
:1012E800B2F90A305089002B02DA40F24B21E3E7C9
:1012F80008BD00BFE811002070B5044610F00300D7
:101308000E4603D04E211820FFF700FBFFF7EEFD35
:10131800054624B1034831460460FFF7E7FD284637
:1013280070BD00BF941200202DE9F14FDFF870B0B6
:101338001E4607460D46DBF8003090469DF828A06B
:101348009DF82C901BB960211820FFF7DFFA524650
:10135800092140461BF0F8FA4A4684B20921304672
:101368001BF0F2FA81B2DBF8000021441BF03CFCD0
:10137800386018B9286001B0BDE8F08F04445346BE
:10138800414609222C6038681BF0A1FA4B46092215
:101398003146286801B0BDE8F04F1BF098BA00BF8D
:1013A8009412002070B50E4604461BF0E0FA05467C
:1013B80030461BF0DCFA044B2A1821461868BDE8B1
:1013C80070401BF036BC00BF94120020024B186816
:1013D80008B11BF0FDBB7047941200201F2AF8B516
:1013E800044613460ED89200033222F00303B3F5E5
:1013F800803F2DD2184DACB1A00710D0682109202C
:10140800FFF784FAFF2B4FEA420204D9FF339A42CE
:10141800A8BF1A46E8E77C2AB8BF7C22E4E729700F
:101428006C602B8122F0030228230127120403FB9E
:1014380001F06B680025120CEEB2B14200D8F8BD7D
:1014480014B126181F705E60104401352833F3E785
:101458004FF0FF30F3E700BF98120020154A002133
:1014680070B553681578C8B2854203D8BA210920E7
:10147800FFF74CFA1C461846013114F8286B0EB9D0
:101488002346F0E70021997001241289996103F13C
:1014980026055C709208D96103F11E04596824F886
:1014A800022FA54243F8041F1144F8D100234361D9
:1014B800037070BD981200200A4B1B89B3F5FF7F9B
:1014C8004FEA930006D25A089B1A9BB2984238BF3B
:1014D80018467047B3F5EE6F01D8FF22F4E740F2E3
:1014E8007263F3E7981200204B782DE9F041064625
:1014F8000C4602F0040702F0FB05E3B1A5BBFF238D
:10150800A3707B0804EB57073A7D032A02D1022D0A
:1015180018BF0133E2180121117503F10C010022F3
:1015280004EB830324F811205B68A2703046336013
:10153800B280BDE8F081002DE1D1012301F11E0246
:101548008D6120464B7004F1260C1A4BCD611B8926
:1015580049689B0822F8023F944540F8041F194443
:10156800F8D100236361CAE7D1F80480142200216E
:10157800A018617024F0B9FA0E4B1B89B3F5FF7FF0
:101588000FD25A089B1A9BB208EB0301C4F80480D7
:101598002384A1606284C4F80C80A3842161E2845E
:1015A800ADE7B3F5EE6F4FF0FF02EBD940F272638F
:1015B800EAE700BF981200202DE9F84305460C46DB
:1015C800F720052191461BF0BFF9061E21DB1DB946
:1015D80006FB04F0BDE8F88315F0030703D0982153
:1015E8001920FFF793F9DFF83080C8F81050A8F8F1
:1015F8001460BBB29C42EBD9B8F814504B46D8F8EB
:1016080010000522F72107FB050001371BF05FF9E1
:10161800EFE74FF0FF30DDE7AC12002007B5CDE96A
:1016280000230B4603490246081D1BF093FC03B038
:101638005DF804FBC412002013B5064CCDE9002365
:101648000B46024604F1080104F10C001BF082FC71
:1016580002B010BDC412002008B54B1E032B03D9DD
:1016680023219020FFF752F90028054A0CBF0523D3
:101678000C2303EB8103053323F00103137008BD2A
:10168800D4120020124B01224FF0FF3000215A6083
:10169800C3F80803C3F80015C3F804255A6040F6D8
:1016A800FE72C3F808034FF48060C3F8001503F511
:1016B80060330849C3F80825C1F88800BFF34F8F85
:1016C800BFF36F8FC1F88801C3F80825704700BFC2
:1016D80000A0045000E100E002680020014B1A60FD
:1016E800704700BFD8120020014B1B68184700BF85
:1016F800D8120020024B1868003818BF0120704724
:10170800D81200200A4606489C2302F8033BC36807
:10171800C1F803300369536043699360704700BFA1
:10172800DC120020024B5A8C02435A845B6A184729
:10173800DC120020014B00215B6A1847DC120020F4
:1017480010B5154C10F03CFF11F066FA208DFFF72C
:10175800F1FF237E63B12246104904F1190052F8C3
:101768000C3BE36063685360A368936021F0F5F86D
:10177800218DE06A09F086FFE36AB3F8AA0009F050
:10178800C5FD636B94F8301094F831009847002336
:1017980084F8383010BD00BFDC1200200D1700009F
:1017A800034B93F838300BB1FFF7CABF704700BF3F
:1017B800DC1200202DE9F041DFF8808005460E4656
:1017C80008F12C001EF00CF9044618B1012420463B
:1017D800BDE8F081D8F82C3093F8A8704FB1012DEE
:1017E80007D1B8F822301A0703D598F83930002BFA
:1017F800ECD1012EEAD8D8F83C3028469847002882
:10180800E4D098F83030002BE0D167B9012DDED153
:10181800B8F82230002BD9D198F84030002BD6D117
:1018280098F8414007E0002DD1D1B8F822309B0745
:10183800EED598F8394084F00104C8E7DC1200209E
:1018480070B5204C0646636DE56A63644FF4817396
:1018580094F85800A4F848302B7D95F8211100EB36
:1018680083002EB9FF2803D195F820318B4201D08F
:1018780010F04CFB2B7DFBB1E06D10F0C9FDE16D64
:10188800606C11F04FF966B995F82131033B012BD3
:10189800B5F8E4308CBF00202820184480B210F03E
:1018A8001BFEB5F8E00010F0BDFA002010F052FE63
:1018B800022384F8383070BD606C10F0A9FD11F077
:1018C800ABF9E0E7DC12002008B5094B93F83820A3
:1018D800022A04D040F257312720FFF717F8DA7AA6
:1018E80042F00102DA72BDE80840FFF729BF00BFE5
:1018F800DC12002010B590F86E1086B0D1B9C288FD
:101908000B4605910021CDE903110C4991F8584087
:10191800029400F190040194C96A91F8A810003962
:1019280018BF0121009100F18001022011F00AF88E
:1019380006B010BDD0E91E23E3E700BFDC1200208B
:101948002DE9F041274C06460F4694F83830012B14
:101958005FFA83F804D040F60E112720FEF7D6FF71
:10196800E56A2B7953B1002104202971FFF7DAFECB
:10197800E36A93F8A8300BB185F8058094F86030D5
:101988008BB92B7A052B0ED117490220FFF7CAFE17
:10199800E36A93F8A83033B1E36E1B789A1E53427A
:1019A800534184F839301EB1BDE8F041FFF7C8BE95
:1019B800002FF9D031463046FFF7FCFE0028F3D15E
:1019C8002B7DE46A13B12846FFF794FF94F8212190
:1019D8000120B4F8E21023F06CFC0020BDE8F041CF
:1019E800FFF72EBFDC120020481300207FB590F8C7
:1019F8006E10D1B9C2880B4605910021CDE90311BB
:101A0800FB21029100F1900101910949C96A91F8FD
:101A1800A810B1FA81F14909009100F18001042070
:101A280010F090FF07B05DF804FBD0E91C23E3E752
:101A3800DC1200201E4A10B5546E41782378C90084
:101A480003F0F30301F008010B438178890001F0EA
:101A580004010B43C178090103F0EC0301F0100104
:101A68000B43017801F003010B432370B2F8703087
:101A780063700223516EA2F8683004790B78600114
:101A8800012C23F0200300F0200043EA00030B7030
:101A98000CD1D36A93F8BA2093F8BB30032A03F029
:101AA8001F0308BF002243EA82138B7010BD00BFDA
:101AB800DC120020F7B5184C0646656F0DB1E36CD3
:101AC80023B940F6C6012720FEF720FFB4F85030AE
:101AD80001F003012F466B702B7823F003030B43AF
:101AE80007F8033B3846B4F85020E16C1AF046FA80
:101AF8000DF1020201A9A06F6564E7641BF05EF8AE
:101B080001981BF049F80122B4F850103060A06F1A
:101B18001AF0EDFF03B0F0BDDC1200202DE9F04F04
:101B2800AE4C87B0D4F82C8098F8201158B998F8A2
:101B3800142094F8583003EB8203FF2B03D198F854
:101B480021318B4202D0FF2010F0E0F9002304AAD3
:101B580002A9A34804938DF8143084F8603001ABCF
:101B68001DF033FF0746002845D0029ABDF804301F
:101B780022B940F213412720FEF7C8FE6266A4F896
:101B8800703003B1D31CE366012384F860309DF8FC
:101B9800133004A8003B18BF012384F8403098F89C
:101BA8001330002B00F02081B4F87030002B00F0C7
:101BB8001B81FFF73FFFE06D10F02AFC9DF8142011
:101BC800E16D003A606E18BF012210F0C1FD18B92E
:101BD800616EE06D10F030FFB8F8E20010F022F905
:101BE800012010F0B7FC012384F8883084F83830DD
:101BF80007B0BDE8F08FE66A8DF80300337AADF8D8
:101C08000600062B00F2CD80DFE803F004CEA4A482
:101C1800CBBBBB0000230DF1060103A8A6F8443096
:101C280094F87F30A6F81031ADF8063007F0A2FB23
:101C380038B1039D2DB1012384F880300523337218
:101C48009CE0E36A93F85530002B6BD10DF1030249
:101C58000DF10601D4F884001AF0B0FE05460028FC
:101C680060D09DF80370FFB10146D4F884001AF0E3
:101C78008FFF1AF091FFD0F800B0D0F804A0814689
:101C88005BEA0A0348D1002389F8003089F801305B
:101C980089F8023089F8033089F8043089F805306A
:101CA80089F8063089F80730BDF80630002B40D196
:101CB800012333720123002784F88030BDF80630F1
:101CC8006566A4F8703003B1EB1CE366727A357A66
:101CD8008DF81120022DB27A8DF8122004D0053D1E
:101CE800012D8CBF012503258DF81050002F5ED0E3
:101CF80000209DF810308DF81300032B6BD1E36E94
:101D08001B781B2B67D1012106F1BA0010F046F9A8
:101D180001238DF814303AE723F0CEFC83457AEBA3
:101D28000101B0D2002301222E4DADF806303272E7
:101D3800C6E79DF803301BB92B80AB700323B8E7C7
:101D48002B7803F00303012BF8D00223337200230E
:101D5800B375AFE7B6F810310DF103020DF10601C6
:101D6800D4F88400ADF806301AF028FE054610B9FC
:101D780040F2C451FFE6012384F88030BDF80630F4
:101D88009EE70DF1060103A807F0F4FA08B1039DD8
:101D980015B940F2D351EEE6012384F880300623CA
:101DA8004DE740F2DD51E6E60E4D002388E7032DAE
:101DB80002D11B78022B9BD0D4F884001AF056FE6F
:101DC80038B9032D94D007F0F1FA80F00100C0B2C1
:101DD8008FE701208DE700239BE700BFDC1200207E
:101DE8000813002058130020FFF724FE606E10F03F
:101DF8000FFB10F011FF9DF81410606E003918BF2A
:101E0800012123F063FAE7E62DE9F04FAA4C87B0E9
:101E18000027804694F83830E56A022B5FFA83FB86
:101E280005F1A80A0191CDE9027704D040F6AF1177
:101E38002720FEF76BFD616C03200B784A7801447C
:101E4800A4F84800E16403EA0001A4F850208DF8E2
:101E58001010C3F3C0018DF81110C3F380018DF881
:101E68001210C3F30011C3F340138DF813108DF84B
:101E78001430B8F1000F00F0238104A904F12C00FC
:101E88001DF0A5FD064630B9B4F8501051B3A06F47
:101E98001AF00DFE0746238D9DF8121043F40073C7
:101EA800676723856B7A0133DAB203F0010399423D
:101EB8005CD12B7AF3B1032B6A7215D8012B08BFBA
:101EC8004FF0010BB5F84430BBF1020FA5F84630CE
:101ED80016D102A9D4F884001AF092FDE8B940F2AC
:101EE800D671A5E70746D6E7053B012B05D940F291
:101EF800B4719DE74FF0040BE4E74FF0030BE1E703
:101F0800BBF1030F10D107F043FA10B94FF4FC618D
:101F18008EE700210820FFF705FCD5E91C320133C4
:101F280042F10002C5E91C320021E36A297293F8E4
:101F3800A8302BB16B791BB110206971FFF7F2FB48
:101F4800238D4FF0000B43F4006323852B7DDBB119
:101F5800B4F85030C3B110F07DFE0328FBD002283E
:101F680006D1FFF7EDFB07B0BDE8F08FC346EDE7FC
:101F780050B9AB7A9DF8112003F001039A4203D1BE
:101F8800012384F83130ECE7B4F85070E6B19DF8DD
:101F98001330591E4B424B4184F84130002F40F01A
:101FA800B7800027B946019B002B00F0B88010F0DD
:101FB80007FBB9F1000F00F01E819DF8101003A86F
:101FC800FFF778FD0127C9E0AB7A9DF8112003F0EF
:101FD80001039A4223D19DF810307FB35A1E012A7B
:101FE8002CD8238D95F8149043F4805323850FF053
:101FF8002FFF032894F8893007D1B9F1000F0CBFDF
:102008001F221B22934228BF1346B4F850209A423D
:1020180008D994F8303043F0100384F830304FF08A
:1020280000092FE0636F002BF9D094F88A301BB1B8
:102038002020FFF77FFBF2E79DF81030AA7A032BE8
:1020480002F10102AA7210D1238D01201B4943F429
:10205800805328712385FFF765FBD5E91E320133CC
:1020680042F10002C5E91E32D9E75A1E012A1DD8DD
:10207800002FD4D0C146D5E91E32013342F1000207
:10208800C5E91E32626F9DF81310002A45D1B4F8D5
:102098005020B2FA82F25209012914BF002202F03C
:1020A80001023746002684F841207CE7002FB6D08D
:1020B800002BB4D1D1E700BFDC1200202813002088
:1020C8002B7D0BB110F0E0FD94F88B30013384F8D0
:1020D8008B30238D43F48063238595F82131033BAE
:1020E800012B0DD80FF0B4FE03280DD1B4F85060C1
:1020F8004FF000091B2ECB4694BF00260126C1E7EE
:1021080008F002F80028EDD10026B146B346B9E739
:10211800238D43F48053238543E70122BCE794F8D9
:102128008B100120FFF746FB00287FF440AFEA7CC4
:1021380012B12846FFF75AFC002095F82021B5F87F
:10214800E01023F0B6F80020FFF7E8FCB9F1000F23
:102158005AD09DF8101003A8FFF7ACFC238D5A063F
:1021680006D44020FFF7E6FA238D43F04003238589
:10217800BBF1000F10D0EB884BB9E36A93F8A83095
:102188002BB1B4F80530B4F80720134304D0B4F8E1
:1021980009300133A4F80930B8F1000F3CD0B4F885
:1021A80005300133A4F80530002384F88B301D482E
:1021B80009F010F8029830B11AF0EEFC0022027211
:1021C800514607F04DFF039B33B100221A720C22CF
:1021D8005146039807F012FF002F7FF4C2AE238DFB
:1021E8001B063FF5C0AE8020FFF7A4FA238D43F00D
:1021F80080032385B7E6002E3FF4E4AE0A49A1F137
:1022080020001DF0E6FBDDE6002EA7D00649A1F16F
:1022180020001DF0DEFBA1E7B4F807300133A4F875
:102228000730C4E70813002028130020064B10B518
:1022380093F8382002F0FF0422B91C7609F01AFA44
:10224800204610BD0C24FBE7DC120020094B0A4A8B
:1022580010B51A60FFF7EAFF20B14FF4B1712720DB
:10226800FEF754FB054C06F033FE606506F034FEBD
:10227800E06510BD081F0020C0240000DC1200200B
:10228800F8B5794C054694F8386006F0FF0016B9A1
:1022980009B102B123B94FF420712720FEF736FBAC
:1022A80063639DF81830616284F88A30E26384F8C9
:1022B800300084F88B0084F8310084F8880060844A
:1022C800208584F8400084F8410084F8800084F870
:1022D80039006066E066A4F870006064E064A4F801
:1022E8005000E5620FF07CFE10F096FC95F928018D
:1022F8000FF0DAFED5F8D460D5F8CC000FF0DAFE8E
:10230800304610F069F895F825000FF0DDFEB5F8B5
:10231800E030622B03D9B5F8E230622B01D80FF018
:1023280087FDE36A93F8A860002E40F0858021F0CD
:10233800EBF995F820214D4B4FF47A7153F8223080
:1023480003F5FA73B3FBF1F35233191830460FF063
:1023580031FF474B186810F045F8D5F8C030C4F87D
:102368008430D5F8C430A367AB7B243B072B6BD9EB
:10237800EB7B243B072B67D9B5F8F230B5F8F800AA
:1023880095F82011984228BF1846042908BF032150
:102398001FF076FD034695F8F400984228BF1846CA
:1023A80095F8F03080B2984200D3C3B295F8211165
:1023B80005F1E80084F87F3020F07EFB95F82111C4
:1023C8002F7D0329B5F8FC6008BF04211FF058FDD4
:1023D8000FB9043080B2864228BF0646F6B284F8A8
:1023E800896007F091FE28B107F094FE864238BF55
:1023F8000646F6B284F858601DF0EEFAE36A93F8E0
:10240800A8301BBBEB7C13B12846FFF7EFFA01207D
:10241800FFF784FB002323606360A360EB8863807D
:10242800B5F8AA30238095F825302371D5F82431E2
:102438000BB101221A60F8BD21F066F995F8212147
:1024480000F17101012082E71B23AFE72B7D13B157
:102458002846FFF74FFA0120FFF7F2F9E36AD3F8AD
:10246800F00110F007F8D5E7DC12002060750600CF
:10247800081F0020014B93F888007047DC120020E9
:10248800054A138D92F8800003F4805110B113F4BB
:10249800C06F00D1080B7047DC120020024B93F884
:1024A8002900C0F3C0007047DC120020014B93F8EC
:1024B8008B007047DC120020D1180000111E0000AC
:1024C80049190000A91700000D4B0321186830B501
:1024D8000D4690F8A52090F849400132B2FBF5F37B
:1024E80003EB4303D31ADAB244FA03F3DB0703D44A
:1024F800013911F0FF01F0D180F8A52030BD00BFEF
:1025080068130020014B18681AF00BBE68130020EE
:1025180008B50EF053FF014B187008BD700000207D
:10252800054B10B41C68827C836804F1420194F85E
:10253800410010BC1FF0D9BB681300202DE9F04101
:10254800054617461E460C4619B1AB6853BB012019
:102558001FE0DFF86080D8F8000000F15B0390F816
:102568005A2000F1780190F87E001FF0BEFBD8F8E1
:1025780004305A79D8F80030082A04D093F84C402F
:10258800A21A5442544193F85630012BDDD023B19E
:10259800002000F00100BDE8F0810028D5D1002C12
:1025A800D3D1F5E7002FD2D1002EF1D02846FFF77E
:1025B800B7FFEEE768130020024B18686C3002F092
:1025C8002FB900BF6813002038B50F4CFFF7F4FF90
:1025D800656802F0DFF863682860186820B940F27F
:1025E800F5413220FEF792F91AF081FF10B940F256
:1025F800F741F6E70FF00CFF00200FF06DFF63685E
:1026080004221A7138BD00BF6813002038B5194D6F
:1026180004466B681B79022B04D940F6FC01322072
:10262800FEF774F92B68027C83F8A4201A44C16869
:10263800996692F87C2183F878214268C3F888204B
:10264800037A022B0ED00FF0CBFC0FF069FF0FF0CE
:1026580043F809480FF0C6FE08480FF0BDFE0848C9
:102668000FF028FD637C23B12B685B6E0BB1012250
:102678001A6038BD681300202442000055555500E3
:10268800D6BE898E2DE9F341494D002307460E46F3
:102698002C686372236DB3F8AA2093F82911D3F834
:1026A800C80062811FF03EFC2B6820841A6DB2F8C6
:1026B800D010B2F8D22059849A844FF47F42DA8439
:1026C8004FF6FF721A8517B3012130461FF0CAFE74
:1026D80033780146D8092C6894F8483004F114027C
:1026E800FBB11AF061FCE0B10B6863618B88287B51
:1026F800938004F10E0208284BD004F10D0107F075
:10270800D5F888B941F213413220FEF7FFF869463F
:10271800A8681FF09FFDAB6869461878C0F3801061
:10272800D9E700236361E2E72C68637B04F11A08A8
:1027380043F0020363734FB3002130461FF092FE4B
:102748000368C4F81A308388A8F804302B68186D19
:1027580093F95810A83007F01BFA2868154920F09B
:10276800F3F828681449036D2A30B3F8AA20A0F8B2
:102778000920DB7DC37220F0F0F80221286802F0FE
:1027880093FDFFF719FF02B0BDE8F08104F178006E
:10279800D6E794F87E306373A36FC4F80E30B4F8AC
:1027A8007C3093800023C4F81A30E383CEE700BF5F
:1027B800681300200DD00100C9CF010038B50546C7
:1027C8000C4606F0EFFB420704D4A37803F0E003BD
:1027D800402B30D006F0E6FB830704D4A37803F03F
:1027E800E003202B27D0237803F03F03242B22D8A3
:1027F8000FF034FB94F90030A278002B637802F0D4
:102808001F02B4BF4FF496711E2143EA02234B43C3
:102818001A1AB2F5877F0ED398420CD8074B29466F
:1028280018682388A0F87931A37880F87B31BDE84F
:1028380038401BF01DB9002038BD00BF68130020C8
:1028480008B5074B93F900207F2A04D140F29B3149
:102858003220FEF75BF802707F221A7008BD00BFB5
:102868007000002010B504788EB004F00F0404A99D
:1028780022461AF07BFEFFF74BFE042C33D11B4C8B
:10288800059A2368107893F8781088422BD15078ED
:1028980093F87910884226D1907893F87A10884274
:1028A80021D1D07893F87B1088421CD1107993F805
:1028B8007C10884217D1517993F87D20914212D12A
:1028C8009DF8212093F87E309A420CD10DF10F002B
:1028D800FFF7B6FF9DF90F3004A90093237C227BF4
:1028E80060681AF016FE03200EB010BD68130020B1
:1028F8002DE9F04387B0194C06460F460DF1170035
:10290800FFF79EFF65682B79032B20D02B79062BC8
:1029180014BF4FF001094FF00309236803F142087F
:102928000FF096FA9DF917303A46CDF80C903146DB
:102938000293237BCDE900034346284601F0F6FFC6
:1029480040B1606807B0BDE8F04301F08BBF4FF0BD
:102958000009E2E707B0BDE8F08300BF6813002074
:102968002DE9F043304D87B004460F466E68B379C1
:102978008BB3D5F8008098F8953033B90378002BDD
:1029880014BF0223012388F895303379062BDAB275
:1029980025D0072A0CBF4FF002094FF001090DF1AD
:1029A8001700FFF74DFF0FF053FA9DF91730CDF8D8
:1029B8000C903A46029321462B7BCDE9000308F19F
:1029C8004203304601F0B2FF28B16378DB0609D430
:1029D800686801F047FF002007B0BDE8F0834FF0BA
:1029E8000309DCE7A1690220FFF7E8FEB8B100227D
:1029F8002B6883F8962062696AB15178C1F3031194
:102A080083F897101178527802F00F0241EA0222F7
:102A1800A3F89820E0E7FF2283F89720DCE76868AE
:102A280001F050FFD7E700BF6813002010B5044637
:102A38008AB0FFF76DFD237803F00F03072B02D050
:102A480001200AB010BD694620461AF022FE6846E9
:102A58001AF0C7FE9DF80030002BF1D19DF8013027
:102A6800DB07EDD50C4C019922689DF8110002F1A5
:102A7800780392F87E201FF038F90028E0D020680B
:102A88000121A0301EF09DFEFF216846FFF768FF78
:102A98000130C0B2D5E700BF681300200D4A536863
:102AA80010B51979022904D841F2BC413220FDF74A
:102AB8002DFF1979082902D941F2BD41F6E71B79A2
:102AC800526903F180439268033BBDE8104052F815
:102AD800233018476813002010B5054C637B2BB1D1
:102AE8000FF01EFD0EF0F8FD0023637310BD00BF4C
:102AF8006813002010B5054C23792BB10FF010FD99
:102B08000EF0EAFD0023237110BD00BFA01A0020BB
:102B180010B5094CFFF7E0FF012263681A71002322
:102B28002268A2F8793182F87B31FFF745FD2068E9
:102B3800BDE810401BF053B96813002008B5044BDA
:102B4800586801F0BFFEBDE808401AF0F7BA00BFA8
:102B58006813002008B5FFF7BFFF044B00209968F1
:102B6800FFF790FDBDE80840FFF7CCBC68130020D4
:102B7800062938B51D469DF8104019D908291BD8D3
:102B880002B18CB143689BB912B94378DB0615D4FE
:102B98000B4B5B6818681AF0CBFC00B134B92DB93F
:102BA80006F0B4FD00F00104204638BD0120F9E725
:102BB8009DF814402C43F7E70024F5E70124F3E7D8
:102BC8006813002038B50D1E04460CBF05200320ED
:102BD800104406F0B1FE094B587370B15DB9033C5F
:102BE800012C8CBF502455240EF050FD2046BDE822
:102BF80038400FF089BC4024F6E738BD6813002040
:102C0800F8B53D4CFFF7D8FC656801F0C3FD636873
:102C18002860186820B940F252413220FDF776FE4C
:102C28001AF065FC054610B940F25441F5E72368EF
:102C380093F8A6306BB123681A6D93F8A710C3F800
:102C4800102193F854200A4383F85420002283F873
:102C5800A620206890F8A430034493F87C71636838
:102C680080F878711A7952B11B79012B07D00021AD
:102C78001AF0FEFE18B9BDE8F840FFF749BF23680F
:102C88001E4A93F8A530D05C0FF01EFA236893F81B
:102C9800A420134493F87C61022E2BD004D8012E73
:102CA80005D040F2F771B8E7F31E012BF9D801F00F
:102CB8006BFD31460FF02AF928460FF0A9FB314683
:102CC80001200FF00FFA7B1E2A4638465942594117
:102CD800FFF778FF6268082100235171217321688A
:102CE800D3801372E37381F89530A373237403239D
:102CF8001371F8BD0D20DCE7681300207772060019
:102D0800124A10B5536800B931B9184601F0DAFD16
:102D1800BDE81040FFF7FCBE1979082904D841F234
:102D28008C413220FDF7F2FD19790C2902D941F2C4
:102D38008D41F6E71B79526903F180435268093BDC
:102D4800BDE8104052F82330184700BF6813002030
:102D580010B50B4C052120681AF08AFE30B960685E
:102D680001F0B0FDBDE81040FFF7D2BE2368012096
:102D780093F878110FF008FC63680B221A7110BDE4
:102D880068130020054B1A6892F85420920703D064
:102D98005B68186801F028BD9868704768130020C0
:102DA80070B5304D06466B681A79032A0BD01A792C
:102DB800042A08D0FFF7E6FF044640B941F2C431BF
:102DC8003220FDF7A3FD18681AF091FBF4E72B6891
:102DD80093F8543013B941F2CA31F1E776B11FF0D4
:102DE80003FC30B16B681A79022A0ED841F24A31D5
:102DF800E6E720461FF013FC0028F3D16B681A7928
:102E0800022A17D841F2AA31DAE71A79082A02D930
:102E180041F24B31D4E71B7920466A6903F18043BC
:102E28001269033B52F8233098470C2812D941F213
:102E3800DD31C5E71A79082A02D941F2AB31BFE77B
:102E48001B796A6903F180435269033B52F82330C6
:102E58009847EAE76B69DB68BDE8704053F82030B3
:102E6800184700BF6813002038B5FFF78BFF0446EA
:102E780020B940F21C513220FDF748FD0B4DFF20D0
:102E88002B6893F878110FF041F820460FF0C0FA3C
:102E98002B6893F87831033B012B94BF282000203E
:102EA8000FF01AFB6B6807221A7138BD68130020EF
:102EB80038B5134C0E20236893F878110FF026F8D4
:102EC800FFF760FF054620B940F209513220FDF7AF
:102ED8001DFD0FF09DFA236893F87831033B012B11
:102EE80094BF282000200FF0F7FA23682A46002113
:102EF80093F87801FFF766FE636808221A7138BDF7
:102F08006813002070B51D4D06462B6893F87B2189
:102F180093F879015F2A4FEA521400F03F0094BFFA
:102F2800013400240FF0D0F82B6893F958000FF003
:102F3800BBF8FEB12B682246996E01200FF03AF9D2
:102F48002B68214693F89630022B14BFFF204020AF
:102F58000EF0DCFFFFF716FF2B68064693F8951076
:102F680019B902462046FFF72DFE3046BDE87040ED
:102F78000FF04EBA22468221DFE700BF6813002017
:102F8800F7B52B4C0746236893F87B219B6E5509B0
:102F98005F2A94BF0135002513B10120FFF7B2FF66
:102FA8002368D3F888000FF065FA236893F8542053
:102FB800910703D593F89610022905D052070FD52B
:102FC80093F89620012A0BD1EA1E012A26D893F8F5
:102FD8005930012B0CBF0421032100200FF0D4FA33
:102FE800D4E9006318689A36D7B91AF0A1FA636869
:102FF800074618681AF0A2FA21680246304691F886
:10300800963091F87811009139461AF09EFB2368A2
:1030180083F878510023A37303B0F0BD2946DCE799
:103028001AF098FA014630461AF084FBEFE700BF21
:103038006813002008B50120FFF7A2FF024B062203
:103048005B681A7108BD00BF6813002008B500202E
:10305800FFF796FF024B05225B681A7108BD00BF97
:103068006813002010B5074C606801F0FBFBFFF700
:103078004FFA20680021A0301EF0A3FBBDE81040E5
:10308800FFF746BD681300202DE9F04705468AB0D2
:10309800FFF73EFA2B7803F00F03082B05D04FF00B
:1030A800010840460AB0BDE8F087694628461AF08C
:1030B8008EFA9DF80080B8F1000FF0D19DF801302C
:1030C80003F00303032BEAD12D4C266896F84B3006
:1030D800002B3BD096F84C70637B002B39D14FF016
:1030E800000906F1780396F87E2001999DF81100F1
:1030F8001EF0FBFDB9F1000F01D10028CFD02368E5
:1031080093F8419003F1420A96F8483023B13846C3
:1031180006F0F6FC024638BB52469DF812A002990A
:10312800504619F041FF134606464A4650461EF0DF
:10313800DCFDE0B120680121A0301EF042FBFFF762
:10314800CBFC29460120FFF79DFAAAE763685F795F
:10315800C2E71EF00EFE0828C1D0C31B2073D3F1AE
:10316800000949EB0309BCE74FF00109D5E7002E38
:1031780095D00299384606F089FC0028DAD18EE706
:103188006813002007292DE9F043064687B00F464B
:1031980090464568634C23D11DBB002A49D1D4E928
:1031A800001091F8543013F0030218BF012213F0F5
:1031B8000403827103D033785A1E53425341C371BA
:1031C80091F894304BB12368D3F89000503020F038
:1031D80024FA10B9636801221A7207B0BDE8F083B7
:1031E8003DB32946707C19F0DFFE072F814661D177
:1031F800637B63B158B1B8F1000F52D065681EF017
:10320800B8FD636868715B7923730123A3736368EE
:103218005879082855D17168707C20F0F4F96268F3
:10322800054671680532707C06F076FA63680028F6
:1032380059D0236893F8540010F003000AD093F88B
:103248004A30394601953046626892790092424682
:10325800FFF78EFC62682368907193F8540010F0B1
:10326800040009D093F84B30394601953046D2799D
:1032780000924246FFF77CFC2B4B65681B68E8719F
:103288001BB1414630469847287272686AB3717C10
:10329800236883F87E10116899679288A3F87C20C8
:1032A80023E0236893F878110129A7D1284606F06E
:1032B80015FB6073637B002BA9D0B9F1000FA6D072
:1032C8009CE704AA0DF10F0106F0F0FA20B940F6C8
:1032D800A5313220FDF71AFB04A99DF80F0020F054
:1032E80092F90546A5E7D88018726268137AB3B9CF
:1032F800D388003B18BF0123B06800283FF46DAFA6
:10330800072F7FF46AAF517908293FF466AF002B85
:103318003FF463AF06F000FB0123E3735DE701238D
:10332800EAE700BF68130020101F00202DE9F84FBE
:10333800DFF8C0A0914604468846DAF800201F4608
:103348008168807C19F030FE92F848609AF80D3058
:10335800054686F00106002B3AD092F854305B07F8
:103368001DD592F84B30D3B192F84CB0BBF1080F91
:1033780023D0584606F0ACF93043C6B245B39AF8A4
:103388000F303BB31EF0FFFC002304468AF80F30D1
:1033980089F8004088F800503E70BDE8F88F6368EF
:1033A80023B1DAF8043093F805B0DFE7DAF804302F
:1033B80018681AF0BDF80028F3D1CDB19AF80E10AC
:1033C80031B9A06806F08AFA04468AF80D0038B9BF
:1033D8000024DDE7A168584606F058FB0446D7E705
:1033E8001EF0C7FC0828F3D0DAF804305871CFE78C
:1033F8002C46CDE7681300202DE9F043794D87B0BE
:1034080004462F6897F85730002B47D06E68B37979
:1034180023B9F27912B9327A002A3FD094F80080A1
:10342800B8F1010F72D0B8F1020F00F0B880B8F10E
:10343800000F33D197F8542091072FD00BB9337A66
:1034480063B3637813F0100FC3F300170CBF0122A6
:1034580008229A4322D10022A3688DF814208DF8FF
:103468001520002B47D00DF1160305AA0DF1150103
:103478002046FFF75BFF2B6893F841609DF81430F6
:1034880083B92046FFF74CF870B92B6893F855308C
:10349800023B012B02D89DF8153083BB032007B0EF
:1034A800BDE8F08346F002065FB30DF117004FF058
:1034B8000008FFF7C5F9D5E9003903F142070EF016
:1034C800C7FC9DF917303246CDF80C80214602938F
:1034D8002B7BCDE900033B46484601F027FA00283C
:1034E800DCD0A1690120FFF769F90028D6D02B6844
:1034F80083F8968042E0FF268DF81630D4E7FE2642
:10350800D2E731462046FFF7F3F9C7E7637803F0BF
:103518001803182BC2D197F854305A070AD5616896
:1035280000232046B1FA81F11A464909FFF706F847
:103538000028B3D00DF11700FFF782F9D5E900375D
:1035480003F142060EF084FC0023FF222146039378
:103558009DF9173002932B7BCDE90003334638469B
:1035680001F0E4F9002899D0A1690120FFF726F9B4
:10357800002893D02B68012283F8962062696AB3E9
:103588005178C1F3031183F897101178527802F03B
:103598000F0241EA0222A3F8982002207FE797F859
:1035A80054309B073FF47AAF637803F01803182B65
:1035B8007FF474AF0DF11700FFF742F90EF048FCE5
:1035C8000023FF22214603939DF9173002932B7B9A
:1035D800CDE9000307F1420330467EE7FF2283F876
:1035E8009720DAE768130020014B586801F06AB9A0
:1035F800681300202DE9F04F044689B0062900F22F
:10360800C580DFE811F06000E7000700C300C300D1
:10361800C30026006E4D0EF0E1FD2F6897F8543078
:10362800980714D06E68B3798BB10DF11F00FFF7BE
:1036380007F99DF91F3002222146029330462B7B61
:103648000193FF23009307F1420319F052FF03206F
:103658001FE05F4D6E68B379002B00F097802F68EC
:1036680097F85420910717D50DF11F00FFF7E8F8D8
:103678009DF91F3030460622029321462B7B019389
:10368800FF23009307F1420319F033FF00230920B9
:103698002B7409B0BDE8F08FD30777D5570701D54C
:1036A8000EF09CFD0DF11F00FFF7CAF89DF91F20D1
:1036B8002B6802922A7B42330192FF220092062253
:1036C80021466868C1E7424D2B6893F85420560795
:1036D80037D56968CA79002A33D0426893F85B0005
:1036E8001678864255D1567893F85C00864250D1B8
:1036F800967893F85D0086424BD1D67893F85E00B1
:10370800864246D1167993F85F00864241D15079B6
:1037180093F8602090423CD1627C93F85A00101ACA
:103728004242424193F8560001284ED0002A4CD11B
:1037380093F84C30082B02D04A799A4245D00EF0C3
:103748004DFD6E68B379002B3DD02F6897F8542053
:10375800930720D50DF11F00FFF772F89DF91F3070
:1037680030460022029321462B7B0193FF230093CE
:1037780007F1420319F0BDFE012309202B746B6881
:10378800DA79002A85D19B79002B82D10EF026FDAB
:103798005DE70022C6E7D60715D5500701D50EF01C
:1037A8001DFD0DF11F00FFF74BF89DF91F202B6839
:1037B800214602922A7B42330192FF220092002284
:1037C800686819F096FE0320D9E70A20D7E700BFFA
:1037D80068130020644D81682A68807C19F0E4FB36
:1037E80092F854306E68074692F84890590796F850
:1037F80006A096F807B089F0010940F18E8092F88A
:103808004B30002B00F0898092F84C60082E00F0B5
:103818008680304605F05CFF49EA00005FFA80F9CF
:10382800002F7ED03046A16806F030F906462B6896
:1038380093F8542093F84180520749D5626893F869
:103848005B10107888426ED1507893F85C108842EB
:1038580069D1907893F85D10884264D1D07893F854
:103868005E1088425FD1107993F85F1088425AD170
:10387800517993F86020914255D1627C93F85A109F
:10388800501A424242416968497908294DD093F853
:103898004C30591A4B424B41002E48D1B9F1000F18
:1038A80047D02046CDE90423FEF73AFEDDE904239C
:1038B800BBF1000F0AD0296891F8561001294ED0A3
:1038C80021B9002A4BD108B1002B4AD10EF086FC51
:1038D8002B6893F854309B073FF4B9AE0EF07EFC8A
:1038E800BAF1000F3FF4B3AE2046FEF719FED5F843
:1038F800009000B9FEB10DF11F0048EA4608FEF736
:103908009FFF9DF91F3002932B7B01935FFA88F389
:103918000093012209F14203D2E6767976E7002680
:1039280085E73E4683E70022ADE70023B4E70120A0
:10393800BEE73046BCE799F85530023B012B3FF60D
:1039480086AE002F3FF483AE0DF11F00FEF778FF1F
:103958009DF91F3002932B7B0193FE23D8E70028A3
:10396800B4D00A2095E600BF6813002030B505469C
:103978008BB0FEF7CDFD2C7828466946254D04F01E
:103988000F0419F086FE2B68072C17D193F87811CD
:10399800684619F087FE002221466846FFF7F2FBC9
:1039A8002B6893F87831012B19D0033B012B2BD8C6
:1039B800072C27D16846FFF71FFD19E093F854201C
:1039C80012F0060FE7D093F8A420134493F87C2153
:1039D800012AE0D19621002021F06BFCDBE7062CC0
:1039E80002D00BD8022C0BD821466846FFF702FEFE
:1039F8000446FFF771F820460BB030BD072CD9D02C
:103A08000EF0ECFB0324F4E741F245213220FCF7E9
:103A18007DFF00BF6813002038B5154D2C6894F859
:103A28004830F3B16FF00043D4E920129A4208BF3E
:103A3800B1F1FF3F15D021F08BFDD4E9202390424E
:103A480099410ED32B6893F848305BB92D6805F07F
:103A580027FF044621F07CFD064BE4FB0301C5E982
:103A6800200138BD012005F0DDFF0028F9D0EDE781
:103A78006813002040420F0010B50446FEF7C6FD4B
:103A8800237A032B0AD1194B1B68986E20B140F694
:103A980046113220FCF73AFFFFF734FA237A012B5C
:103AA80006D003D9023B012B12D910BDFEF70CFD3D
:103AB8000E4C236893F958000EF0F6FA236800229A
:103AC80083F89520FFF79CF8BDE81040FFF7A4BFE6
:103AD800064B1B6893F895301BB9BDE81040FFF7FB
:103AE800B5BABDE81040FFF7A5BA00BF68130020BB
:103AF80008B5044B586800F0B5FEFEF709FD012033
:103B080008BD00BF6813002008B5FEF701FD054B8E
:103B180000211868A0301DF054FEBDE80840FEF7EB
:103B2800F7BF00BF681300202DE9F8436A4D002352
:103B380007468946A868D5F80080037043700EF0E0
:103B480083FC064630B90026032006F077FA304693
:103B5800BDE8F883AC68032F237833D123F00F0333
:103B680043F0030323700C236370D8F87830A868F7
:103B7800C0F80930B8F87C30A0F80D3098F87E10FD
:103B88001EF078FB0021A86821F0A0FB2B6893F8B1
:103B9800482003F1420993F84180002A77D14C4626
:103BA80023684146A868C0F80330A388A0F8073006
:103BB8001EF057FB494BD3F80C32002B7CD00EF08B
:103BC8000DFBC0E723F02F03222243EA491362705A
:103BD80043F0050323702B681A6DD2F8CC20C4F883
:103BE8000F201A6DD2F8D430190AE3741B0C217512
:103BF800637592F82A11B2F8DC30002941D06420AC
:103C0800B3FBF0F3A375D2F8D83000293CD0642177
:103C1800B3FBF1F3E375C3F30723237692F8291175
:103C2800D2F8C8001EF07EF929686076000AA076EE
:103C38000B6DAC68B3F8D020E276120A2277B3F89D
:103C4800D2206277120AA2779A69C4F81F201B7FD4
:103C580094F8242084F823300B6D22F01F0293F887
:103C6800233003F01F03134384F8243005F0C0F910
:103C780094F8243003F01F0343EA401384F82430F7
:103C880073E740F2E240BBE740F2E241C0E793F855
:103C9800542052070DD593F84B2052B193F84C009D
:103CA80005F02EFF044600283FF479AF4FF00108D5
:103CB80076E76B685879F3E7052F7FF448AF2B68F0
:103CC80021681A6DC2F8B410A188A2F8B8101B6D4B
:103CD80083F8B3803BE700BF6813002000A00850BA
:103CE80010B500210320FFF71FFF18B9BDE81040E9
:103CF800FEF70EBF074C0321206819F0B9FE002813
:103D0800F4D0012108460EF03FFC636809221A71BD
:103D180010BD00BF6813002070B5164C63681868A2
:103D280019F0E5FB064620B940F261513220FCF754
:103D3800EDFD63680A22002120681A7101F0B4FAC7
:103D4800236805201B6DDD7D3378C3F340131D40C8
:103D58002946FFF7E9FE18B9BDE87040FEF7D8BE5E
:103D68000421206819F084FE0028F5D023681B6D13
:103D7800DD7570BD6813002010B5114C0C220121AF
:103D8800636820681A7101F08FFA00210520FFF797
:103D9800CBFE18B9BDE81040FEF7BABE0621206870
:103DA80019F066FE0028F5D02368012093F87811F1
:103DB8000EF0EAFB236801221B6DDA7510BD00BF07
:103DC800681300202DE9F041044690B00D46FEF737
:103DD8009FFB237803F00F03072B06D00124FFF77E
:103DE80003FC204610B0BDE8F0812046A14C06A98E
:103DF80019F04FFC206806A99A3019F0C4FC236812
:103E08009DF8181093F89620914248D1032D03D1BC
:103E180093F89720FF2A13D09DF8192012073ED552
:103E28000B9993F897004A78B0EB121F37D10978AD
:103E380002F00F02B3F8983041EA02229A422ED1DA
:103E48002A46072106A8FFF79DF96368DA880AB9A8
:103E58001B7A23B30023089E8DF814308DF8153093
:103E68008DF81630F6B10DF1160305AA0DF11501FE
:103E780006A8FFF75BFA23689DF8146093F8415091
:103E880045EA4605EDB29DF818209DF81580012AEF
:103E98009DF8163008D0022A7AD0002A4BD0FFF7B6
:103EA800A3FB14E0FF25EEE79DF81900226800F057
:103EB800090792F89A10092F02D041B1070706D5D1
:103EC80092F85420500704D463689B799BB9012465
:103ED80059E06268D279002AF6D0324606A8FEF781
:103EE8002DFB0028F0D02068A0301DF08CFC0028A5
:103EF800EAD00C2447E0236893F854309A07E6D0B8
:103F08009DF819309B0700F1BC80FF2106A8FEF739
:103F1800EFFCDCE706A8FEF703FB002840F0B480BE
:103F2800236893F85530023B012BD0D8B8F1000F25
:103F3800CDD0FE21EAE7236893F854309F07C6D016
:103F48009DF81930980721D56EB906A8FEF7E8FA4A
:103F580048B9236893F85530023B012BB7D8B8F11C
:103F6800000FB4D0FE2563681B7A33B1424B1B683F
:103F78001BB10D9808B10F999847294606A8FEF776
:103F8800EFFC441CE4B2FEF7A7FD2AE7FF25EAE7A9
:103F9800226892F85420910799D06168897900299C
:103FA80095D09DF8197007F0090109298FD192075A
:103FB80007F0020762D5002F38D026B30DF117009D
:103FC800FEF73EFC00210320FFF7AEFD0646D4E9CC
:103FD800003803F142070DF03BFF01232A4606A9EA
:103FE80003939DF917300293237BCDE900033B46E9
:103FF800404600F09BFC76B900283FF468AF606843
:1040080000F030FC63E7002B8AD006A8FEF788FA98
:104018000028D3D184E700283FF459AF2068A030A6
:104028001DF0F1FB0028EAD00B24ACE70DF11700D6
:10403800FEF706FC39460320FFF776FD0646D4E96D
:10404800003803F142070DF003FF01232A4606A9B1
:1040580003939DF917300293237BCDE900033B4678
:10406800404600F063FC0EB10028D7D1606800F02C
:1040780029FC2CE7681300200C1F0020002F3FF4B8
:1040880044AF002E3FF446AF29463FE7036D10B515
:10409800044623B940F261313220FCF737FC022292
:1040A80007494272B3F8AA304381FF2380F82730CA
:1040B8004FF6FF7303851EF047FC0023236510BDF0
:1040C8000DD00100F8B5194F064604F001FF012193
:1040D800B8600020FDF752F8054620B940F6850182
:1040E8003220FCF713FC4FF4C072002121F0FDFCD4
:1040F80001210846FDF742F8044620B14FF4C0728A
:10410800002121F0F2FC7B6913B940F68F01E7E743
:10411800304619F056F8284619F09BFC24B1204681
:10412800BDE8F84019F095BCF8BD00BF6813002041
:10413800014B024A5A61704768130020C0420000D0
:10414800036810B523B940F677113220FCF7DEFB7F
:10415800044A13606C3353605369BDE810401B6810
:10416800184700BF6813002008B5044B586800F0D2
:10417800A9FBBDE80840FEF7CBBC00BF68130020D0
:1041880038B5044690F8400000F0FD0004F1420103
:10419800003818BF012084F8410005F029F994F887
:1041A8004030023BDBB2012B94BF0123002384F88B
:1041B800483015D805F074FB054621F0C9F9094BBC
:1041C800E5FB030194F84830C4E9200143B100201D
:1041D80005F028FC20B940F621213220FCF796FB97
:1041E80038BD00BF40420F00014936301EF0AFBB5A
:1041F800EBCF010010B5084C0222636820681A71E1
:1042080000F028FF38B9206819F02AF92068BDE8BD
:10421800104019F0E4BD10BD68130020A52A000065
:10422800A92D0000092D0000F7D10100D1250000BB
:104238005D2B0000712E0000B92E000065D1010031
:1042480053D1010045D10100452B00006D3000001D
:10425800113B00000D250000192B0000FD41000056
:10426800092C0000DFCF0100553000003D30000070
:10427800DFCF0100DFCF0100E93C0000213D000055
:10428800592D0000813D0000753900006D2800009F
:10429800AFD10100A9D10100352A000091300000FA
:1042A80097D1010089D101007BD101007BD10100A8
:1042B800F93A00003BD10100813A00003442000085
:1042C800444200005C42000090420000A842000006
:1042D80008B5431EDBB231B1032B08D94FF4EA719C
:1042E8003320FCF713FB032B02D8034AD05C08BD2C
:1042F8004FF43F710620F4E77A72060008B518F00B
:104308003BFD054AD2E84F3F0133DBB2C2E8413FEB
:104318000029F7D108BD00BF80130020024BA0F18F
:1043280008015868FFF7EABF801300202DE9F84F0D
:104338001E463C4B0D46934600211A7804689DF8AA
:1043480028709DF82C809DF930909DF834A001606C
:1043580032B9A4F108015868BDE8F84FFFF7CEBF9D
:104368001A2204F1090021F0C0FB0123A372BBF15A
:10437800060F4FD8DFE80BF00433394E434E3D00AB
:10438800E37A23F0130343F01303E372012304F1E8
:104398000E0241462846237547F6FF7384F81890A5
:1043A800E38204F10D0319F076F8E37A5B0736D55A
:1043B800BA1E04F11C03012A8BBFAA68326811686F
:1043C800E2618ABFE161B28892889A80E776002329
:1043D800237215492046BDE8F84F1EF0B8BAE37AB3
:1043E80023F0150343F01503CFE7E37A43F01003F6
:1043F800CBE7E37A23F0120343F01203C5E7E27A2E
:104408004AF01A0A22F01B020AF01B0A42EA0A02C0
:10441800E272BBE740F246413320FCF777FAFF230C
:10442800E376D4E780130020354400002DE9F04FEF
:1044380005468DB00C4600200121FCF7DBFE064640
:1044480020B94FF4F1713320FCF760FAA83019F065
:1044580002FB18B196F85430042B2ED1304618F0D0
:10446800A5FE50BBB84C04F1080604F10C07AB6A72
:1044780093B92846FFF752FF4FF40073ADF80430A4
:104488009DF80430002063F307009DF8053063F3BE
:104498000F200DB0BDE8F08FA96A0B68B142AB627E
:1044A8004FF000030B704B708B70CB70DFD0B942AC
:1044B800DDD06068FFF722FFD9E7AF6A37B3A34BB7
:1044C8009F4226D0043B9F4223D007F13B0A4FF07E
:1044D800000804F00BFD8146B8F1000F40F005819B
:1044E80002A9504619F0D5F8B9F1000F16D004F119
:1044F8000D00EE7A16F0100613D09DF81860059995
:10450800324617F03BFD4FF0010828E005F1330A69
:10451800DDE74FF001084FF0000ADAE704F11C006C
:10452800E7E7002FEFD09DF80830022BEBD00146CB
:1045380095F83230E52250461DF0EDFF95F83230FF
:1045480006460344504685F832301DF0DCFF95F8E6
:104558003280A8EB0000D0F1000848EB0008B9F160
:10456800000F00F0C680EB7AD90604D45B216AE715
:10457800C8460026F7E713F0040FAA7A95F80DC08D
:104588004FF03E0304F1060105F10E0033D095F813
:104598001BE0BEF1FE0F2ED123700B23E270A37037
:1045A800130184F805C00233637001232371D5F821
:1045B8000E30C4F8063083888B8084F80CE0EB69F1
:1045C800C4F80D302B8CA4F811302B7EE3745E4EAA
:1045D80006F1080A57453BD12379022205F1280044
:1045E80062F34613237118F072FF02272846FFF77B
:1045F80095FE04263FE023700223E270A37006F1C3
:104608000A0384F805C0534302336370D5F80E30AB
:10461800C4F8063083888B80267326442B7E7373F8
:10462800EA7A12F0080102D004232371CFE702F0DE
:104638000303032B01D12171C9E7520701D50123D7
:10464800F3E7022BF1D00BB90323EEE7A421FAE636
:1046580006F10C094F4515D105F1280018F037FF70
:104668006A7D6AB92379042662F346132371022707
:104678002846FFF753FE8DF804608DF80570FFE6B5
:104688000026F4E747B3B8F1000F20D005F1280859
:10469800404618F01CFF39467068FFF72FFEAB6ADA
:1046A8000022534585F8322096D04B4505D1237911
:1046B800404662F34613237195E79DF80830022BB4
:1046C80005D1237923F068030127237191E7237922
:1046D800012262F34613F7E7EE7A16F01006CAD005
:1046E800237967F3461323717FE700287FF440AFEF
:1046F80006468E2305F12301237006F11803AA7AD2
:104708005343E270221D0233637005F10B0353F823
:10471800040B8B4242F8040BF9D195F814A095F8D4
:1047280015B004F021FCC1F3402950464946FFF773
:10473800CFFD6073BBF1000F04D049465846FFF720
:10474800C7FDA073E67642E7801300208C13002093
:10475800343270B5054692B20C461E4618F0D4FAAB
:1047680025B1034A556014745674147070BD00BFA7
:104778008013002010B5034C606818F0E7FA237C1A
:10478800237010BD80130020014B587C704700BF78
:104798008013002038B5134D686818F0DDFA044618
:1047A80020B940F257113320FCF7B0F8D5E84F3F55
:1047B800013BDBB2C5E8413F0029F7D104F108030A
:1047C8003422184621F091F947F6FF720121E4627C
:1047D800E283FF22627584F82320E27C61F34612AB
:1047E800E27438BD8013002038B5436A044693B993
:1047F8000A4D686818F0B0FA606220B94FF4B871D1
:104808003320FCF783F8D5E84F3F013BDBB2C5E81E
:10481800423F002AF7D1606A3B3038BD8013002040
:10482800036810B504468BB19A6A22B140F28D1123
:104838003320FCF76BF8596A41B101F10800834253
:10484800074B08BF22605868FFF758FD216831B14F
:10485800034B08395868FFF751FD0023236010BD4A
:104868008013002038B5046805469CB113492046DA
:104878001EF076F8124B00221A735A739A73DA7381
:10488800EFF3108272B6A16A0C3399B9A362E3629E
:1048980002B962B62C68616A49B101F108039C4209
:1048A80003D0074B5868FFF729FD002363620023F4
:1048B8002B6038BDE16A0B60E9E700BF35440000B2
:1048C8008013002070B50668044656B3716A154D0A
:1048D80041B101F108039E4202D06868FFF70EFD5E
:1048E8000023736221684E7DB6B100232B726B7270
:1048F800AB72EB72EFF3108272B6886A0A4B40B95A
:104908008B62CB6202B962B62046BDE87040FFF701
:10491800A9BFC86A0360F4E708396868FFF7EEFCC6
:10492800266070BD80130020881300202DE9F04711
:104938000468914606460D469A469DF820209DF843
:104948002C8024B940F23B313320FBF7DFFF664F60
:104958003B78B3B9B8F1020F0DD009D9B8F1030FFC
:104968000CD03368002B00F08A804FF45671EBE7C7
:10497800FFF756FFF5E7FFF775FFF2E7FFF7A2FF2E
:10498800EFE7636A0BB94021DEE783F81180CB6853
:104998007BB1097C238E0B4440F272618B4207DDA8
:1049A800FFF790FF3368002B69D040F27531CBE7F1
:1049B80023860123A3729DF928302376B8F1000FCE
:1049C80060D122756B691BB15B78C3F30313A375C0
:1049D800EB6913B15B88A4F819302A78511E4B4251
:1049E8004B41E17A63F30001C1F34003022A08BF97
:1049F80043F0010363F34101C1F34003002A14BFEC
:104A0800002303F0010363F3C301AB68E1721BB138
:104A1800CBB243F00403E3722B6A13B193F900306D
:104A2800E3756B6843B104F10D0304F10E029DF8C0
:104A38002410284618F02FFDAB688BB1A9F10201AC
:104A480004F11C02012995BFDAF800301968E36106
:104A5800E16194BFBAF804309B88938084F81B9076
:104A6800A969B8F1000F0FD179B38B784A7803F0B0
:104A78001F0352EA032228D13046FFF7D1FE002057
:104A8800BDE8F08762759DE70022636A1A705A7064
:104A98009A70DA70A26AEAB9A362E36289B14A78C5
:104AA800897801F01F0152EA01220AD1A16A3A72FB
:104AB8007A72BA72FA720D4A79B9A2620023E26276
:104AC80033600B4920461DF04BFF636A3BB94FF436
:104AD800D87139E7E26A1360DFE71A60EEE700236E
:104AE80001206362CCE700BF8013002088130020F8
:104AF8003544000010B504460246064900F58C709E
:104B080020F057FE224604F5A4700249BDE8104083
:104B180020F04FBE67DB010010B590F854308A1EB4
:104B2800012BD2B205D1022A2AD8174B33F812002A
:104B380010BD04291CD002291ED14FF4E1700024B5
:104B4800114B042903EB4403DB88034414BF002002
:104B58002820022A4FEA400003F1960394BF0B492C
:104B680040F64802184498BF31F812201044DFE795
:104B780040F264600224E3E740F246430020E8E79D
:104B880040F64800D4E700BF7E7206007E72060039
:104B9800014B1870704700BF710000207FB590F876
:104BA800142102F0FF0322B140F2A5212120FBF7D6
:104BB800ADFE0C78039314F0010218BF8D68CDE99F
:104BC800013318BF019514F0040529D004ADCE684F
:104BD80005EB820545F80C6C154680F845514A6886
:104BE800124DC0F8C820C0F8F82040F27122A0F891
:104BF800FC20032215F8011B0C420BD004A900EB82
:104C0800830601EB8301013351F80C1CDBB2163922
:104C1800C6F8CC10013A12F0FF02EBD104B070BD17
:104C2800002ADAD140F2BE21C0E700BF8A7206002E
:104C38002DE9F04F04468FB09B469246BDF8607050
:104C4800039120F085FC80462046049118F015FE5B
:104C5800D4F8CC900546BBF1000F00F0D781BAF12B
:104C6800000F00F0E480834618F5FA630593049B6F
:104C780043F10003069306F04BFC064604F1E800F6
:104C88003146079006F016FCD4F8101111B10798B8
:104C980018F035FFBDB1D4F8F050BEB1B0682A465F
:104CA800D6E90031C018059B009341F10001069B2D
:104CB80001931EF000FD8542034608D240F24D31B3
:104CC8002120FBF723FED4F8C850E6E73346059ABF
:104CD800D4F8C8009D18069A42F10006002F00F08B
:104CE800A180BFB242F2107C29463246E7FB0C1283
:104CF80000F2CF773B44B3FBF0F34343EB1A66F182
:104D08000000C4E92A12C4E93A300027E319204612
:104D180093F87C1118F096FDD4F8A830D4F8AC10AC
:104D28005A1B0590069361EB0600012A70F10003F7
:104D38004FF00003C0F259819145834100DB914651
:104D480004EB8707D7F8CC704F4528BF4F46C4F807
:104D5800DC70BAF1000F05D0D4E93A23C4E92C5627
:104D6800C4E93023059B2046039AC4F8D8300423AD
:104D78000791C4E92E5653722A46334618F093FD1C
:104D8800039B059A18725A60BBF1000F00F0388136
:104D98000123039A07991370069B049AB3EB08033F
:104DA80061EB0202012B72F100004FF00000C0F22B
:104DB8001E81A74E9E42904100DB1E46D4F810315A
:104DC800D4F8C890002B40F0178107252046A9FB8E
:104DD800055A18F052FD002800F00B81D4E92C3256
:104DE800ED184AEB0203A845049A9A410FD2B5EB95
:104DF8000805049A63EB02036FF00102AA424FF020
:104E080000029A4102D3AE4228BF2E46B146039B08
:104E1800C3F81090059B9F4234BF002001200FB0BB
:104E2800BDE8F08F4FF0FF316FF0004260E70028D7
:104E380038D06FF00043D4E92A129A4208BFB1F182
:104E4800FF3F2AD094F844312046234493F87C113C
:104E580018F0F8FC18F19802049B0546099008A878
:104E680043F100038DF820A0CDE90C2340F2024362
:104E7800ADF8283020F0A3FC10B940F296411FE7A6
:104E8800D4E92A320C995B1A0D9962EB01025B1B7B
:104E980062F10002002AC0F2A2804546049E4FF04B
:104EA800010B32E7D4E93A26D4F8C850A8EB02033C
:104EB800AA18B3FBF5F305FB03F346F100069B18AC
:104EC800A3EB080246F10006972A05D8ED1846F12B
:104ED8000006D346574619E794F87C11204618F087
:104EE800B1FC0423D4F8B8208DF82930D4F8C85080
:104EF800099020468DF820A0D4E93A13521AB2FB43
:104F0800F5F26A43521843F10003CDE90C2318F077
:104F1800CAFC29468DF8280008A81CF058FFDDE9CE
:104F28000C56D6E751F8042F013302F1160CCC4584
:104F38009FBF821A01379144FFB2DAB29645F1D881
:104F4800E319204693F87C1118F07CFC484404EBE4
:104F58008703D3F8CC30834209D3A3EB0909B9F10D
:104F6800000F22DA40F24E41AAE6A94667E094F81B
:104F78004511D4F8C820B9420FD901379542FFB27C
:104F880008D204EB8703D3F8CC3003F11602994614
:104F98001546E4E74FF4856192E69542F7D352004F
:104FA8009542F4D340F245418AE6AD192046D4E94A
:104FB8002C234BF1000618F01CFCD4F8C8304FF035
:104FC800000B5843D4E93A321B18204642F100023C
:104FD800C4E93A322A46334618F00BFC96E64546B1
:104FE800049E4FF0010BD14674E79946A8E60646A1
:104FF800E4E6D4E93032F3E64FF0FF352B46F2E62B
:10500800039B83F800B0C3E9045603E7BAF1000F25
:105018007FF42AAED4F8C82008F19805D4E93A13E9
:10502800A8EB0106B6FBF2F656437618A5EB060583
:1050380043F10003AA429B4697D8A5EB0209002337
:1050480094F845E104F1C8016FF015001F4674E7B4
:105058000040420F90F87B315F2B4FEA53122DE945
:10506800F04F044689B000F2A380022A02F101073A
:1050780003D10022042780F8702194F9792103F0E4
:105088001F0394F87A81002A48EA032894F87931B2
:10509800B4BF4FF496721E22DB0902FB08F80CBF5E
:1050A8004FF01E0B4FF4967B0CF0D8FEA8EB0006D1
:1050B8000CF016FF94F87931824606EB0B0913F0D1
:1050C800400FC2440CBF4FF4FA7532251CF0AAFBFE
:1050D800724B0544F22E09FB05F505F5742505F21A
:1050E8003F25B5FBF3F56DD994F8153103F0FF02B0
:1050F800002B5FD1384601920DF01AFB684B4FF434
:105108007A7953F8278008F52243B133B3FBF9F6CF
:10511800BA365E4406EB4506064438460DF008FBF1
:10512800009038460DF00CFB394683462046FFF7C1
:10513800F3FC00F18C07009BA8EB0B083744019A9D
:10514800FF1A04238DF808208DF81130D4E92C3289
:10515800B8FBF9F8933BA7EB080742F1FF3213EBD2
:105168000A03039742F100025B1B62F10002CDE9DA
:1051780006324C4B1878FE2803D094F854305A075E
:1051880001D420F09DFA8DF8100002A904F58C7066
:10519800C4F8D870C4F84061DDE90623C4E92E23B9
:1051A80016F0E2F930B940F2EE612120FBF7AEFBD0
:1051B800002762E70DF06EF816F0C2F9012009B079
:1051C800BDE8F08F38464FF47A790DF0B1FA344BD8
:1051D800029453F8278094F8443108F2E7368DF8A2
:1051E80018300223B6FBF9F620368DF8103000236C
:1051F8005E448DF819305644AAF1100A2E44AAEBE1
:105208000505064402A805950396FEF799FF38465A
:105218000DF08EFA824638460DF092FA0546394668
:105228002046FFF779FCA8EB050800F18C03D4F8B9
:10523800D870B8FBF9F83344A3EB0A03A3EB0808CA
:105248004745BBD2174B1E78FE2E03D094F8543036
:105258005B0702D420F034FA0646304620F0CAF93B
:10526800A8EB07033146192B38BF1923834228BFFF
:10527800034618461D4620F0E7F900289FD020F085
:105288006BF9D4F8D8302B44A3F18200C4F8D83095
:10529800C4F8E00020F05EF990E700BF40420F003C
:1052A8004C7506007100002001292DE9F3470646D8
:1052B80005D9022900F099804FF4046150E001F00B
:1052C8000104D0E92CA70CF0E7FD96F87881814617
:1052D800204641461CF0F5FD054640460DF030FAE3
:1052E8000246002C3FD0A8F10203DBB2022B3AD8C9
:1052F800534901EB43031B8A15EB09052CBF012118
:10530800002115EB0A0547EB01074E4951F8280023
:1053180000F2E73010444FF47A72B0FBF2F02D1A25
:1053280067F10007ED1847F100071EF0EDF952305C
:10533800D6F810812C1A67F10005D8F8C87006F065
:10534800E1F806F1E803834210D03A46CDE900457A
:10535800D8E978011EF0AFF9874211D240F26131E5
:105368002120FBF7D3FA4FF4FC73C5E798F829011D
:1053780030B13A46CDE90045D6E93A011EF09BF92D
:10538800314B1A68D6F81031824293F82A110ED997
:10539800D3F8C8603218C3F8D86089B941F66A01F1
:1053A8008842A3F8DC1018D34FF4FA61D8E751B15A
:1053B8006422B0FBF2F151430246401AC3F8D810F8
:1053C8004FF4FA71ECE740F2E242B0FBF2F15143DC
:1053D8000246C3F8D810401AE0E7121945F1000553
:1053E800C3E9782502B0BDE8F087D0F8103113B9C9
:1053F80040F2DB71B4E700255D7390F8781183F80B
:10540800201183F82111FF2483F822410339D0F8B1
:105418001001012900F1E8008CBF002101211DF0D5
:1054280085FBD6F810011FF086F9C6F8105186F8EA
:1054380016410CF02FFF02B0BDE8F04716F080B817
:105448007E720600607506009413002008B50B4BA9
:1054580030B101280DD040F653012120FBF756FA50
:1054680018601A6841F669039A4206D940F65C0149
:10547800F3E740F6C4121A60F3E708BD941300205E
:105488000138C0B2032808B504D94FF43F7106208B
:10549800FBF73CFA014B185C08BD00BF947206008C
:1054A8000138C0B2032808B504D94FF43F7106206B
:1054B800FBF72CFA014B185C08BD00BFB17206005F
:1054C8000138C0B2032808B504D94FF43F7106204B
:1054D800FBF71CFA014B185C08BD00BF14730600EB
:1054E8000138C0B2032808B504D94FF43F7106202B
:1054F800FBF70CFA014B185C08BD00BF0D740600E1
:10550800F0B5284AA7B004460D4610686B465168A6
:1055180002AE0F2203C300210DF1890020F0E5FA45
:1055280000211022304620F0E0FA16ABDDE9000138
:1055380083E80300234618AC03F1280718680833EA
:1055480053F8041C2246BB4203C21446F6D18023FA
:1055580006AA8DF88830002302F8013B0133102B8E
:10556800FAD196E80F0012AC84E80F000AAA214687
:1055780006A818F057FC01230EAA214606A88DF8A4
:105588004B3018F04FFC2A460EA90AA8042320F035
:10559800E3F9042305F1100229460AA820F0DCF9F2
:1055A80027B0F0BD987206002DE9F04F934690F8A9
:1055B8005D7291F83E2189468BB00025044640F281
:1055C800712A8DF8183006238DF810508DF819308F
:1055D800B7FBF2F102FB1177B9F83A210D21FFB2BE
:1055E8005743D0F8C4200092FBF75EFE0E210190CD
:1055F800FBF700FED4F8D4100AFB07F68046C97CF6
:10560800012935D103A901981CF0A0FC18B14A2141
:105618008E20FBF77BF9039A01921CF003F9019A9B
:10562800054692F82B0104F0C5FA94F85D2298F823
:105638003E11B2FBF1FC01FB1C2212F0FF025ED00E
:1056480094F811C0B8F83A11624505BF4A43D8F832
:1056580030110CFB01110AFB021218BF0AFB01F200
:1056680029180BEB020089B214F0B2FF00F1100503
:10567800C4F8C4502046D8F84CA16D0013F038FD8A
:10568800D4F8D430824594BF55442D18DB7C05F2FC
:105698000625012B059504F1180569D1002F67D05F
:1056A800637C7BB3284620F004F840F27122B9F8F5
:1056B8003A315343009A12F5EA782CBF01220022AE
:1056C80013EB080342F100021B1842EB0101D4F866
:1056D800C4002D4A121A34BF6FF001004FF0FF309A
:1056E800D218059B41EB0001A3602846CDE90821AB
:1056F80004A915F039FF002843D1FF2188E7D8F81D
:105708003021ADE7D4F8BC601FF0D6FFD4F8C8301C
:10571800D4F8D4E07609002BC6F5EA76B8BF1F3373
:10572800F7174FEA63184FEAE37C9EF811309EF8AA
:1057380017E0012BB9F83A3140F2712914BF102251
:10574800202209FB03F313EB08034CF1000C083B80
:105758004CF1FF3CB3EB0E036CF1000C9B1947EBCB
:105768000C071B1841EB07019B1A61F10001AEE71A
:10577800D9F83031D4E9002133449B1841F10001B4
:10578800A5E70BB0BDE8F08F2CFEFFFF08B50EF0C3
:10579800CBFD28B9034B1868BDE8084018F021BCB8
:1057A80008BD00BF44140020F7B50446052900F2DF
:1057B8000D81DFE811F00600A900AC000B010B0118
:1057C800A50090F8623223B903B0BDE8F04015F0A7
:1057D800B7BE90F86232052B05D10F220021204672
:1057E80018F033FCF0E74FF40C71806814F0F0FE09
:1057F800A368283B18441FF0ADFE94F86232032BCF
:1058080008D094F86232022B04D040F267118E203F
:10581800FBF77CF8032384F86232D4F8D4300D21E6
:10582800B4F864222046B3F847301344A381FBF749
:105838003BFD06460E21FBF7DDFC01A90546304677
:105848001CF084FB08B18D21E1E794F85D3240F249
:10585800712E95F83E710199B5F83821D1F8C81024
:10586800B5F850014A43B5F83A110EFB00F0B3FB06
:10587800F7F607FB16335643DBB203F1010C4B4333
:105888000EFB0363834201D99721C0E7BC45A0EB17
:10589800030300D0F1B93244904202D8042284F8BC
:1058A8006222D5F84C21934218D2042284F862224D
:1058B80023F07F43D4F85022204663F31702C4F83C
:1058C80050220EF083FB60B9204603B0BDE8F040DB
:1058D80018F087BB0EFB01F18B42DEE722F07F4315
:1058E800E8E720460EF08EFC0028EDD0394815F088
:1058F80069FD384815F074FD374B1C6003B0F0BDE6
:105908000EF022FD032269E74FF401717FE7FF23C0
:1059180080F8673290F8623203F0FF0213B980F81A
:105928006722EBE790F86232052B07D103220021AA
:1059380018F08BFB002384F86732F2E7302301A9C3
:1059480080F82032B0F86032ADF804300EF0FCF97F
:10595800BDF804300228B4F86022A3EB020384F8EF
:10596800B030E7D001282DD1042384F862320D210C
:105978002046FBF799FC0E210546FBF73BFC94F803
:105988005D3290F83E21B3FBF2F102FB1133013393
:10599800DBB29A4202D0042384F86232D4F8D430BD
:1059A8002946B4F864222046B3F847301344A3814B
:1059B80018F00AFB94F86232042BBBD1204618F089
:1059C800CFFAB7E7204612F053FDD0E740F20A219C
:1059D8001DE700BF9557000044140020014B024A00
:1059E8005A60704744140020B1570000024B024629
:1059F800183059681FF0DDBE44140020044A054BD6
:105A0800518B1A609980D18A928BD9801A817047FC
:105A18003E0100204C140020014B1868704700BF5D
:105A28004C14002008B5034610465A1E032A10D805
:105A38004A1E032A0DD8084A012951700CBF0021BB
:105A48000A211071937091721946FBF705FE002028
:105A580008BD6FF01500FBE73E010020074A537AA6
:105A680040B143F00403002953720CBF00230723FD
:105A78005371704703F0FB03F5E700BF3E010020B8
:105A880040EA4100014BD870704700BF3E0100203A
:105A980014280BD028280BD00A280BD10323064A38
:105AA8000020528B1340054A938070470223F6E783
:105AB8000023F4E71E2070473E0100204C1400200C
:105AC800014B9888704700BF4C14002038B50E4D24
:105AD8000446AB7A0BB90C2038BD2B68002BFAD0E2
:105AE8001EF049F80028F6D17F2C09D8EB8834EA53
:105AF800030007D1054B2A89DC8214409C83EBE71D
:105B08001E20E9E71120E7E74C1400203E010020A1
:105B180070B506680D4604460E21B6F8AA00FBF7D4
:105B280069FB074980F8BD50B4301CF00DFF002315
:105B380086F84D312046BDE870401DF08BB900BF96
:105B4800D55C00002DE9F0410768054688460E211E
:105B5800B7F8AA00FBF74EFB0D210446B7F8AA00D8
:105B6800FBF748FB002680F86262094904F1B4009B
:105B780084F8BD8084F8BE60A4F8C0601CF0E4FE20
:105B880087F84E612846BDE8F0411DF063B900BFB3
:105B9800CFE301002DE9F041056806460F460E21C6
:105BA80095F8A880B5F8AA00FBF724FB0D21044658
:105BB800B5F8AA00FBF71EFBB8F1000F02D0EB7B8B
:105BC800452B15D0002384F84571A4F84831A4F872
:105BD8004631A8B994F8453104F1B4000B4984F86A
:105BE800BD30002384F8BE30A4F8C0301CF0ACFEF1
:105BF800002385F84F313046BDE8F0411DF02AB941
:105C080090F86232002BE5D0F2E700BFCFE3010045
:105C180038B5036814460D460E21B3F8AA00FBF701
:105C2800E9FAB4B9B0F84831B0F84621A0F84841CB
:105C38009B1AA0F846411BB290F8A4205AB980F8E4
:105C4800A5509C30847283810349BDE838401CF01C
:105C58007BBE0023F0E738BDCFE3010010B54088D4
:105C68000C460E21FBF7C6FA90F872305BB980F843
:105C7800734014B9FF2380F8C23003496A30BDE885
:105C880010401CF061BE10BDA1E5010070B50668AA
:105C980004460D460E21B6F8AA00FBF7ABFA90F8B9
