:10000000B05401207D380200E7AB030069380200DC
:100010006938020069380200693802006938020054
:100020000000000000000000000000004D39020048
:100030006938020000000000353B02006938020008
:10004000B53B0200B53B0200B53B0200B53B0200E8
:10005000B53B0200B53B0200B53B0200B53B0200D8
:10006000B53B0200B53B0200B53B0200B53B0200C8
:10007000B53B0200B53B0200B53B0200B53B0200B8
:10025000B53B020071D10300B53B0200B53B020083
:10026000B53B0200B53B02005BD10300B53B020089
:10027000B53B0200B53B0200B53B0200B53B0200B6
:10028000B53B0200B53B0200B53B0200B53B0200A6
:10029000B53B0200B53B0200B53B0200B53B020096
:1002A000B53B0200B53B0200B53B0200B53B020086
:1002B000B53B0200B53B0200B53B0200B53B020076
:1002C000B53B0200B53B0200B53B0200B53B020066
:1002D000B53B0200B53B0200B53B0200B53B020056
:1002E000B53B0200B53B0200B53B0200B53B020046
:1002F000B53B0200B53B0200B53B0200B53B020036
:10030000B53B0200B53B0200B53B0200B53B020025
:10031000B53B0200B53B0200B53B0200B53B020015
:10032000B53B0200B53B0200B53B0200B53B020005
:10033000B53B0200B53B0200B53B0200B53B0200F5
:10034000B53B0200B53B0200B53B0200B53B0200E5
:10035000B53B0200B53B0200B53B0200B53B0200D5
:10036000B53B0200B53B0200B53B0200B53B0200C5
:10037000B53B0200B53B0200B53B0200B53B0200B5
:10038000B53B0200B53B0200B53B0200B53B0200A5
:10039000B53B0200B53B0200B53B0200B53B020095
:1003A000B53B0200B53B0200B53B0200B53B020085
:1003B000B53B0200B53B0200B53B0200B53B020075
:1003C000B53B0200B53B0200B53B0200B53B020065
:1003D000B53B020087D10300B53B0200B53B0200EC
:1003E000B53B0200B53B0200B53B0200B53B020045
:1003F000B53B0200B53B0200B53B0200B53B020035
:10040000B53B0200B53B0200B53B0200B53B020024
:10041000B53B0200B53B0200B53B0200B53B020014
:10042000B53B0200B53B0200B53B0200B53B020004
:10043000B53B0200B53B0200B53B0200B53B0200F4
:10044000B53B0200B53B0200B53B0200B53B0200E4
:10045000B53B0200B53B0200B53B0200B53B0200D4
:10046000B53B0200B53B0200B53B0200B53B0200C4
:0C047000B53B0200B53B0200B53B0200AA
:10048000064A074B02604FF44472DB7882800822F0
:10049000C371002382710372704700BF69B8010005
:1004A000B01B0020064A074B02604FF4B072DB7AA3
:1004B00082800822C371FF2382710372704700BFDC
:1004C00051B10100B01B0020084B094A1B7892F87B
:1004D00028201B020749C27103F52E730160838037
:1004E00008238371FF230372704700BFDC1C0020C8
:1004F000B01B002063630100074A9378D27813444D
:10050000064A02604FF4BA72C371FF23828004224C
:1005100003728271704700BFB01B00207963010035
:10052000064A9378D2781344002282600260044A1B
:100530004260C371FF230372704700BFB01B0020ED
:1005400070000800094991F829308A7803EB4303C9
:10055000C978DB000A4400211033C27181608380B6
:10056000042301608371FF2303727047B01B0020D6
:1005700008B502F013F904F031FA05490D2000F036
:1005800089FC04490E20BDE8084000F083BC00BF90
:10059000C9040000F90400002DE9F341C41D00283E
:1005A000064624F007040CBF0020204600F084FC1F
:1005B000071E04DA6FF00B0002B0BDE8F081374D82
:1005C000E988A88803316B7A03302A7A89B280B22D
:1005D00015F0D0F90028EDDB3C44A978EB78002E2B
:1005E00004F10304194424F0030400FB01F10CBFDF
:1005F0000020204600F00EFE20440EB90028D9DB72
:10060000EA7A0446B2B1EB7B697C13441944FF29B2
:10061000D0D80330002EAA89C9B220F003040CBF41
:100620000020204600F068FE0028C3DB04440EB919
:10063000002CBFDB012000F035FCB0B1A97BA1B1DB
:1006400095F82A3033B340234FF481720734002EDB
:1006500024F007040CBF0020204601F0C1FE002852
:10066000A8DB04440EB9002CA4DBAB7AFBB1EB7A17
:10067000B3B10734002EA97A24F007040CBF002080
:10068000204606F06BFA002894DB04447EB9002C67
:100690000DDA8FE725232822D8E700BFB01B002002
:1006A000012000F0FFFB10B1AB7B002BE1D1734BBD
:1006B0001B6893B1A97D81B10334002EEA7D24F03B
:1006C00003040CBF0020204698470028FFF672AFB5
:1006D000044416B9002CFFF66DAF694B1B688BB153
:1006E000297C79B10334002E24F003040CBF0020D0
:1006F000204698470028FFF65DAF044416B9002C49
:10070000FFF658AF5F4B1F68B7B1697CA1B10334E6
:10071000002E2B7D24F0030408BF0020009318BF97
:100720002046EB7CAA7CB8470028FFF643AF044480
:1007300016B9002CFFF63EAF072000F0B3FB98B1CE
:10074000A97D89B10334002E2A7E24F003040CBF56
:100750000020204600F0BEFE0028FFF62BAF044428
:1007600016B9002CFFF626AFB6FA86F795F82300E7
:100770007F09A0B103346B7FA97E24F007041944DC
:100780003B4644F00404C9B2224600F0E3FE0028D0
:10079000FFF610AF044416B9002CFFF60BAF95F826
:1007A000241000294CD004F10708002EEA8C28F010
:1007B00007080CBF0020404615F0F0F8041EFFF6B5
:1007C000F9AE4444002E3ED1002CFFF6F3AEA97FD3
:1007D000002945D095F82230002B41D02A8C0734CF
:1007E000002E02F1240224F007080CBF002040462E
:1007F00092B215F0D3F80028FFF6DCAE404416B9EB
:100800000028FFF6D7AE03302B7FA97E20F007002B
:1008100019443B4640F0040495F82200C9B2224630
:1008200000F08AFE0028FFF6C5AE044486B9002C0D
:10083000FFF6C0AEEB6AF3B1C6B1EC620020BBE6D6
:10084000002EC4D08846E98C40460CF093FDBEE7EC
:100850002A8C4046A97F083292B20CF091FDE9E75C
:10086000002EE7D0002211461046F6E728343FF567
:10087000A1AE2046A0E6002EE0D1FAE70C29002028
:1008800010290020142900201FB572B6194B1C6BCB
:10089000ECB9BFF34F8F1849184BCA6802F4E062F5
:1008A0001343CB60BFF34F8F00BFFDE7B2FBF6F2FF
:1008B0002B465D1C002AF9D1DBB203F110056D4413
:1008C00005F80C2C0A2233B901A8A047E1E702463B
:1008D00000230A26EDE7013BDBB203F110050DEB27
:1008E0000506B0FBF2F502FB1500303006F80C0CE3
:1008F0002846E8E7B01B002000ED00E00400FA0500
:1009000013B5124C68462389ADF80030E388ADF882
:100910000430A388ADF8023003F0E8FB18B1FB21E6
:100920009C20FFF7B1FF207D03F010FC08B1FE21F1
:10093000F6E7E07C03F004FC08B1FF21F0E794F84F
:1009400029000AF077FB02B010BD00BFB01B0020E9
:1009500070B50546002855D014F076F918B94FF057
:10096000FF34204670BD12F051FEB0F5FA7FF6D884
:10097000264C012625630025284684F8345025702E
:1009800084F82A50E5620BF083FF1A22294604F10D
:100990000F001CF08FF81B2308210322A380284698
:1009A000E3800223A1721F216372E375F723227291
:1009B0002384FB23A2734922E3840A23A1812946CD
:1009C000E27484F82930A670E670E672A674267682
:1009D00001F026FF2A463146304601F0F3FE044678
:1009E00020B140F2B6319C20FFF74EFF014601F0E6
:1009F00005FFEFF3108572B600F0D2FD002DB0D1E7
:100A000062B6AEE76FF01504ABE700BFB01B002085
:100A100038B51446002840F0EE80784D95F8343013
:100A2000032B00F0E58019B312B96FF0150038BD43
:100A30000139172900F2DF80DFE811F018002900E2
:100A40002C0042006C0075009400480078007B0088
:100A50008E004E005400620067009A009D00AC00BA
:100A6000AF00B200A300B500B900D2001378AB709C
:100A70000020FFF791FD0028B7BF012302236FF08C
:100A80000B0085F83430A8BF85F83430CFE71378F1
:100A9000EB70EDE71379002BC7D05379002BC4D04E
:100AA0001288FB2AC1D863881B3B9BB2E02BBCD8C1
:100AB0001A2ABAD92368A2886B60514B9A80D7E76B
:100AC0001378EA7B9342B0D3EB72D1E71378EA7ADA
:100AD0009342AAD8EB73CBE71378EA7A9342A4D86F
:100AE0006B74C5E71378002B9FD05378013BDBB2C2
:100AF000F82B9AD8138892786B82424B9A70B7E79A
:100B0000107868750AF0E6F8B2E71378002B8CD0FD
:100B10002B76ADE7012000F0C5F9237808B1012B51
:100B200083D9AB73A4E71388AB81A1E71378AB75C6
:100B30009EE7072000F0B6F918B92378012B7FF65D
:100B400074AF072000F0AEF918B12378002B3FF402
:100B50006CAF2378EB758BE71378082B3FF665AF06
:100B60002B7485E71388FF2B3FF65FAFAB727FE7EF
:100B700013786B767CE713780E2B3FF656AFAB7687
:100B800076E72368204AC5F81E30636853602389DE
:100B900013816DE71378EB766AE713786B7767E775
:100BA00013782B7764E7137885F8283060E701F035
:100BB00003FE98B1007900F001026178207801F01D
:100BC00001FE00287FF433AF6378012B7FF650AF2E
:100BD0000CF048FA00287FF44BAF26E70246ECE71A
:100BE00013785A1E092A3FF620AF85F829303FE7CF
:100BF0004FF0FF301BE76FF02C0018E7B01B002010
:100C0000B41B0020C21B0020CE1B0020F8B50D46EF
:100C1000064630B329B311F0070422D1124F97F8DA
:100C20003430012B02D16FF00B00F8BD032B02D141
:100C30004FF0FF30F9E700F0E9FC0028F8D0284633
:100C4000FFF7AAFC0028EEDB1BF0F5FA3046F96A44
:100C500003F0E2FEFFF754FE0323204687F834300A
:100C6000E3E76FF01500E0E7B01B002010B5074C7C
:100C700094F83430032B03D103F0E6FE04F0B2FD08
:100C800014F0B9FF002084F8340010BDB01B002020
:100C900008B503F053FE03490320BDE8084000F007
:100CA000F9B800BFA504000008B503F061FE0349D0
:100CB0000220BDE8084000F0EDB800BF810400004C
:100CC00008B503F077FE03F05DFA03490F20BDE895
:100CD000084000F0DFB800BF2105000008B5044956
:100CE000122000F0D7F8BDE8084003F06BBA00BF4F
:100CF00045050000074B4FF0FF3141F6FF72C3E995
:100D0000001205490022C1E900221F21C3E9021295
:100D1000704700BF20110020E81B00203F280CD89E
:100D200001380B4BC0F3421200F01F0053F8223081
:100D300023FA00F000F001007047FF2806D0403889
:100D4000044BC0F3421200F01F00EFE70120704790
:100D500020110020E81B0020074B0146006849686D
:100D60001A4603C240F48C2200201A6041F010722F
:100D700042F4FF625A607047201100200246034B84
:100D80000068516803C30020704700BFE81B0020C3
:100D90000246034B0068516803C30020704700BF40
:100DA000281100200138064BC0F3421200F01F004A
:100DB00003EB82039B6823FA00F000F00100704708
:100DC000201100200A8870B595B2C67CC2F30E02CD
:100DD0000488023602F118033444C35AA4B23344DF
:100DE0002344013BB3FBF4F303FB0422438892B298
:100DF0009342044B8BBF2B40AB4313439BB20B80FE
:100E000070BD00BF0080FFFF4A1E062A08B50346DA
:100E1000084604D84FF4D1711520FFF735FD094A73
:100E2000914202D940F2A311F6E711B903B119605A
:100E300008BD2BB11B680022C3E901211A1D1A60ED
:100E40000430F5E7FAFFFF7F10B5114B00EB4104CA
:100E50001A786389B3FBF2F303FB0223013A1A44C5
:100E6000B2F5706F0279807828BF00231A440B18FE
:100E7000B2FBF0F100FB11215B1AB3FBF0F100FBB8
:100E8000113313446FEA43436FEA5343638110BD48
:100E9000F01B0020024B03EB80035960704700BF3A
:100EA000F01B0020034B03EB80035868003818BF89
:100EB00001207047F01B00202DE9F04F10F0070AC9
:100EC00085B0054604D040F26F111720FFF7DCFC17
:100ED000534F04464FF0010B07F15406B146B0469C
:100EE00057F8043B8DF80BA03BB101A898479DF83B
:100EF0000A30082B01D9F521E7E79DF80B1041BB1B
:100F000005B131604F4506F10406E9D1002D6FD0DF
:100F10000022DFF810911427964689F8002058F82F
:100F200027A0013FBAF1000F55D09AF804609AF853
:100F300002C0FF2E60D039460023481C38D19C44A3
:100F4000BCF1FF0F3FD90AB189F800E04FF49A7164
:100F5000BBE79DF80AC04B1D60465A0004EB4303F3
:100F6000022838BF0220441E40422344BDF80840F6
:100F70006444CCF1000C0340013C04EA0C04B4F5D9
:100F8000803F02D340F205119FE775B19A1A326093
:100F90009170148082F803B09DF80C0010710198D4
:100FA0004FEA104C1081A2F806C004FB0134A9E7F7
:100FB00058F8210028B190F804B0B34504BF8078F8
:100FC0001B180139B9E7DBB2E6458AF804303CBFAB
:100FD0005FFA8CFE01227B1CA1D10AB189F800E0E6
:100FE000142640F6FF6A58F82670B7B9013EFAD2C7
:100FF000601B05B0BDE8F08F0023E5E707EB410378
:1010000009F101093846A3F80AA0FFF71DFF5FFAAE
:1010100089F1BB788B42F1D8E8E74FF00009F6E799
:10102000F41B0020F01B002038B54FF6FF7302467A
:101030000380184B03EB8103986DA8B18478037982
:10104000B3FBF4F104FB1133DBB2194600EB4105AD
:10105000B5F90A50002D0EDB0131B1FBF4F504FBAC
:101060001511C9B28B42F1D1002038BD6381BDE8B2
:10107000384014F04CBC00EB41046389C3F30E0309
:101080001380C278002AF1D14FF4E5711720FFF7E1
:10109000FBFB00BFF01B00201C4B03EB810370B572
:1010A0009C6D054644B3030404D54FF4EC7117203E
:1010B000FFF7EAFB0146204614F00CFCFF2801462E
:1010C00004D02046BDE8704014F021BCA078B5FBE8
:1010D000F0F300FB1353DBB219460A1D04EB420682
:1010E000B6F90260002E09DB0131B1FBF0F200FB22
:1010F0001211C9B28B42F0D1002070BD8B4201D0D9
:101100000023E37004EB42025580DAE7F01B002075
:10111000094B03EB8103014610B59C6D204614F08A
:10112000D9FBFF28014604D02046BDE8104014F04A
:10113000EEBB002010BD00BFF01B0020F8B5104B27
:10114000074603EB810301469C6D204614F0C2FB69
:10115000FF28054611D0E288238953EA024606D0CB
:101160000146204614F0D3FB01463846B0472046DE
:101170002946FFF769FE0020F8BD0520FCE700BF07
:10118000F01B002038B50E4B0446827903EB820336
:10119000986D08B9052038BD8278E1799142F9D27D
:1011A0004B1CE37100EB41035D89B3F90A30002B5E
:1011B000F3DBA58014F0ABFB20600020EBE700BF61
:1011C000F01B002008B5124B03EB81039A6D22B986
:1011D00040F246211720FFF757FB9178831A481DEC
:1011E000A3EB40031088B3FBF0F3002B01DB994223
:1011F00002DC40F24921EDE702EB4302B2F90A308A
:101200005089002B02DA40F24B21E3E708BD00BF12
:10121000F01B002070B5044610F003000E4603D00A
:101220004E211820FFF730FBFFF7EEFD054624B1F5
:10123000034831460460FFF7E7FD284670BD00BF54
:101240009C1C00202DE9F14FDFF870B01E460746C8
:101250000D46DBF8003090469DF828A09DF82C90B4
:101260001BB960211820FFF70FFB524609214046A9
:1012700014F0B4F94A4684B20921304614F0AEF9AC
:1012800081B2DBF80000214414F0F8FA386018B994
:10129000286001B0BDE8F08F04445346414609225E
:1012A0002C60386814F05DF94B46092231462868F5
:1012B00001B0BDE8F04F14F054B900BF9C1C0020F1
:1012C00070B50E46044614F09CF90546304614F0FD
:1012D00098F9044B2A1821461868BDE8704014F0AC
:1012E000F2BA00BF9C1C0020024B186808B114F031
:1012F000B9BA70479C1C00201F2AF8B50446134653
:101300000ED89200033222F00303B3F5803F2DD2B2
:10131000184DACB1A00710D068210920FFF7B4FA2E
:10132000FF2B4FEA420204D9FF339A42A8BF1A4664
:10133000E8E77C2AB8BF7C22E4E729706C602B8147
:1013400022F0030228230127120403FB01F06B683B
:101350000025120CEEB2B14200D8F8BD14B1261827
:101360001F705E60104401352833F3E74FF0FF3003
:10137000F3E700BFA01C0020154A002170B5536898
:101380001578C8B2854203D8BA210920FFF77CFA44
:101390001C461846013114F8286B0EB92346F0E7B5
:1013A0000021997001241289996103F126055C706E
:1013B0009208D96103F11E04596824F8022FA5424E
:1013C00043F8041F1144F8D100234361037070BD3A
:1013D000A01C00200A4B1B89B3F5FF7F4FEA930046
:1013E00006D25A089B1A9BB2984238BF18467047DB
:1013F000B3F5EE6F01D8FF22F4E740F27263F3E732
:10140000A01C00204B782DE9F04106460C4602F066
:10141000040702F0FB05E3B1A5BBFF23A3707B0823
:1014200004EB57073A7D032A02D1022D18BF01337E
:10143000E2180121117503F10C01002204EB830372
:1014400024F811205B68A27030463360B280BDE89A
:10145000F081002DE1D1012301F11E028D612046B2
:101460004B7004F1260C1A4BCD611B8949689B080F
:1014700022F8023F944540F8041F1944F8D1002394
:101480006361CAE7D1F8048014220021A0186170BA
:101490001BF010FB0E4B1B89B3F5FF7F0FD25A08D0
:1014A0009B1A9BB208EB0301C4F804802384A1605B
:1014B0006284C4F80C80A3842161E284ADE7B3F5B3
:1014C000EE6F4FF0FF02EBD940F27263EAE700BF24
:1014D000A01C00202DE9F84305460C46F720052105
:1014E000914614F07BF8061E21DB1DB906FB04F0C3
:1014F000BDE8F88315F0030703D098211920FFF702
:10150000C3F9DFF83080C8F81050A8F81460BBB2F7
:101510009C42EBD9B8F814504B46D8F8100005227D
:10152000F72107FB0500013714F01BF8EFE74FF038
:10153000FF30DDE7B41C002007B5CDE900230B46E2
:1015400003490246081D14F030FB03B05DF804FBAC
:10155000CC1C002013B5064CCDE900230B460246F7
:1015600004F1080104F10C0014F01FFB02B010BDDF
:10157000CC1C002008B54B1E032B03D9232190203F
:10158000FFF782F90028054A0CBF05230C2303EB63
:101590008103053323F00103137008BDDC1C002018
:1015A000114B01224FF0FF3000215A60C3F80803AD
:1015B000C3F80015C3F804255A6040F6FE72C3F85C
:1015C00008034020C3F8001503F570330749C3F83A
:1015D0000825C1F88800BFF34F8FBFF36F8FC1F8A4
:1015E0008801C3F8082570470060045000E100E05E
:1015F00002680020014B1A60704700BFE01C002009
:10160000014B1B68184700BFE01C0020024B186804
:10161000003818BF01207047E01C00200A46064829
:101620009C2302F8033BC368C1F80330036953608D
:1016300043699360704700BFE41C0020024B5A8C42
:1016400002435A845B6A1847E41C0020014B0021C6
:101650005B6A1847E41C002010B5154C0AF0AEFD7B
:101660000BF0D8F8208DFFF7F1FF237E63B12246FF
:10167000104904F1190052F80C3BE36063685360B1
:10168000A368936018F007FC218DE06A05F0C0FAAA
:10169000E36AB3F8AA0005F0FBF9636B94F8301025
:1016A00094F831009847002384F8383010BD00BF0B
:1016B000E41C00201D160000034B93F838300BB1DA
:1016C000FFF7CABF704700BFE41C00202DE9F041BE
:1016D000DFF8808005460E4608F12C0016F0BFF8B2
:1016E000044618B101242046BDE8F081D8F82C301A
:1016F00093F8A8704FB1012D07D1B8F822301A071E
:1017000003D598F83930002BECD1012EEAD8D8F85F
:101710003C30284698470028E4D098F83030002B19
:10172000E0D167B9012DDED1B8F82230002BD9D134
:1017300098F84030002BD6D198F8414007E0002DB2
:10174000D1D1B8F822309B07EED598F8394084F013
:101750000104C8E7E41C002070B5204C0646636D08
:10176000E56A63644FF4817394F85800A4F8483034
:101770002B7D95F8211100EB83002EB9FF2803D1B2
:1017800095F820318B4201D00AF0C2F92B7DFBB1D4
:10179000E06D0AF051FCE16D606C0AF0C1FF66B9C2
:1017A00095F82131033B012BB5F8E4308CBF0020C4
:1017B0002820184480B20AF08DFCB5F8E0000AF049
:1017C00067F900200AF0C4FC022384F8383070BDA9
:1017D000606C0AF031FC0BF01DF8E0E7E41C00201F
:1017E00008B5094B93F83820022A04D040F257314B
:1017F0002720FFF749F8DA7A42F00102DA72BDE8F1
:101800000840FFF729BF00BFE41C002010B590F886
:101810006E1086B0D1B9C2880B4605910021CDE982
:1018200003110C4991F85840029400F1900401947E
:10183000C96A91F8A810003918BF0121009100F180
:10184000800102200AF07CFE06B010BDD0E91E2304
:10185000E3E700BFE41C00202DE9F041274C0646D9
:101860000F4694F83830012B5FFA83F804D040F625
:101870000E112720FFF708F8E56A2B7953B10021F4
:1018800004202971FFF7DAFEE36A93F8A8300BB160
:1018900085F8058094F860308BB92B7A052B0ED132
:1018A00017490220FFF7CAFEE36A93F8A83033B164
:1018B000E36E1B789A1E5342534184F839301EB1AF
:1018C000BDE8F041FFF7C8BE002FF9D031463046E1
:1018D000FFF7FCFE0028F3D12B7DE46A13B1284604
:1018E000FFF794FF94F821210120B4F8E2101AF0D8
:1018F000D1FC0020BDE8F041FFF72EBFE41C002022
:10190000501D00207FB590F86E10D1B9C2880B46EB
:1019100005910021CDE90311FB21029100F1900115
:1019200001910949C96A91F8A810B1FA81F14909F0
:10193000009100F1800104200AF002FE07B05DF87A
:1019400004FBD0E91C23E3E7E41C00201E4A10B589
:10195000546E41782378C90003F0F30301F00801C5
:101960000B438178890001F004010B43C178090120
:1019700003F0EC0301F010010B43017801F00301C7
:101980000B432370B2F8703063700223516EA2F8DB
:10199000683004790B786001012C23F0200300F0FB
:1019A000200043EA00030B700CD1D36A93F8BA20ED
:1019B00093F8BB30032A03F01F0308BF002243EA59
:1019C00082138B7010BD00BFE41C0020F7B5184CCB
:1019D0000646656F0DB1E36C23B940F6C6012720BA
:1019E000FEF752FFB4F8503001F003012F466B7040
:1019F0002B7823F003030B4307F8033B3846B4F876
:101A00005020E16C13F08AFA0DF1020201A9A06FD7
:101A10006564E76413F01CFF019813F007FF0122CF
:101A2000B4F850103060A06F13F0ABFE03B0F0BDFF
:101A3000E41C00202DE9F04FAE4C87B0D4F82C8088
:101A400098F8201158B998F8142094F8583003EBFE
:101A50008203FF2B03D198F821318B4202D0FF2063
:101A60000AF056F8002304AA02A9A34804938DF8AB
:101A7000143084F8603001AB15F0E6FE074600280C
:101A800045D0029ABDF8043022B940F21341272014
:101A9000FEF7FAFE6266A4F8703003B1D31CE36669
:101AA000012384F860309DF8133004A8003B18BF70
:101AB000012384F8403098F81330002B00F0208187
:101AC000B4F87030002B00F01B81FFF73FFFE06D92
:101AD0000AF0B2FA9DF81420E16D003A606E18BF6A
:101AE00001220AF033FC18B9616EE06D0AF0A2FD24
:101AF000B8F8E20009F0CCFF01200AF029FB01232D
:101B000084F8883084F8383007B0BDE8F08FE66A92
:101B10008DF80300337AADF80600062B00F2CD8075
:101B2000DFE803F004CEA4A4CBBBBB0000230DF17F
:101B3000060103A8A6F8443094F87F30A6F81031C7
:101B4000ADF8063003F0BAF938B1039D2DB1012389
:101B500084F88030052333729CE0E36A93F85530B3
:101B6000002B6BD10DF103020DF10601D4F88400B6
:101B700013F06EFD0546002860D09DF80370FFB19C
:101B80000146D4F8840013F04DFE13F04FFED0F858
:101B900000B0D0F804A081465BEA0A0348D10023D4
:101BA00089F8003089F8013089F8023089F803306B
:101BB00089F8043089F8053089F8063089F807304B
:101BC000BDF80630002B40D10123337201230027DA
:101BD00084F88030BDF806306566A4F8703003B133
:101BE000EB1CE366727A357A8DF81120022DB27AF9
:101BF0008DF8122004D0053D012D8CBF0125032551
:101C00008DF81050002F5ED000209DF810308DF818
:101C10001300032B6BD1E36E1B781B2B67D10121C3
:101C200006F1BA0009F0BCFF01238DF814303AE741
:101C30001AF033FD83457AEB0101B0D20023012273
:101C40002E4DADF806303272C6E79DF803301BB951
:101C50002B80AB700323B8E72B7803F00303012B31
:101C6000F8D0022333720023B375AFE7B6F8103112
:101C70000DF103020DF10601D4F88400ADF8063031
:101C800013F0E6FC054610B940F2C451FFE601230B
:101C900084F88030BDF806309EE70DF1060103A8F8
:101CA00003F00CF908B1039D15B940F2D351EEE6EB
:101CB000012384F8803006234DE740F2DD51E6E64B
:101CC0000E4D002388E7032D02D11B78022B9BD0F9
:101CD000D4F8840013F014FD38B9032D94D003F028
:101CE00009F980F00100C0B28FE701208DE70023E1
:101CF0009BE700BFE41C0020101D0020601D002099
:101D0000FFF724FE606E0AF097F90AF083FD9DF854
:101D10001410606E003918BF01211AF0C8FAE7E606
:101D20002DE9F04FAA4C87B00027804694F8383050
:101D3000E56A022B5FFA83FB05F1A80A0191CDE960
:101D4000027704D040F6AF112720FEF79DFD616CAD
:101D500003200B784A780144A4F84800E16403EAC0
:101D60000001A4F850208DF81010C3F3C0018DF8C5
:101D70001110C3F380018DF81210C3F30011C3F3E7
:101D800040138DF813108DF81430B8F1000F00F0E7
:101D9000238104A904F12C0015F058FD064630B942
:101DA000B4F8501051B3A06F13F0CBFC0746238D4D
:101DB0009DF8121043F40073676723856B7A013333
:101DC000DAB203F0010399425CD12B7AF3B1032B11
:101DD0006A7215D8012B08BF4FF0010BB5F84430DB
:101DE000BBF1020FA5F8463016D102A9D4F8840041
:101DF00013F050FCE8B940F2D671A5E70746D6E7E4
:101E0000053B012B05D940F2B4719DE74FF0040B5F
:101E1000E4E74FF0030BE1E7BBF1030F10D103F050
:101E20005BF810B94FF4FC618EE700210820FFF742
:101E300005FCD5E91C32013342F10002C5E91C3230
:101E40000021E36A297293F8A8302BB16B791BB19A
:101E500010206971FFF7F2FB238D4FF0000B43F464
:101E6000006323852B7DDBB1B4F85030C3B10AF099
:101E7000EFFC0328FBD0022806D1FFF7EDFB07B0EB
:101E8000BDE8F08FC346EDE750B9AB7A9DF811205D
:101E900003F001039A4203D1012384F83130ECE7C7
:101EA000B4F85070E6B19DF81330591E4B424B41C7
:101EB00084F84130002F40F0B7800027B946019BDD
:101EC000002B00F0B8800AF079F9B9F1000F00F0AA
:101ED0001E819DF8101003A8FFF778FD0127C9E0C7
:101EE000AB7A9DF8112003F001039A4223D19DF8AB
:101EF00010307FB35A1E012A2CD8238D95F81490E8
:101F000043F48053238509F0D9FD032894F88930E0
:101F100007D1B9F1000F0CBF1F221B22934228BF2B
:101F20001346B4F850209A4208D994F8303043F060
:101F3000100384F830304FF000092FE0636F002B5E
:101F4000F9D094F88A301BB12020FFF77FFBF2E72D
:101F50009DF81030AA7A032B02F10102AA7210D167
:101F6000238D01201B4943F4805328712385FFF7FB
:101F700065FBD5E91E32013342F10002C5E91E328C
:101F8000D9E75A1E012A1DD8002FD4D0C146D5E961
:101F90001E32013342F10002C5E91E32626F9DF824
:101FA0001310002A45D1B4F85020B2FA82F2520937
:101FB000012914BF002202F001023746002684F8EE
:101FC00041207CE7002FB6D0002BB4D1D1E700BF71
:101FD000E41C0020301D00202B7D0BB10AF052FCC8
:101FE00094F88B30013384F88B30238D43F4806375
:101FF000238595F82131033B012B0DD809F05EFDB7
:1020000003280DD1B4F850604FF000091B2ECB46C9
:1020100094BF00260126C1E703F052FD0028EDD150
:102020000026B146B346B9E7238D43F48053238598
:1020300043E70122BCE794F88B100120FFF746FB31
:1020400000287FF440AFEA7C12B12846FFF75AFC23
:10205000002095F82021B5F8E0101AF01BF90020B7
:10206000FFF7E8FCB9F1000F5AD09DF8101003A853
:10207000FFF7ACFC238D5A0606D44020FFF7E6FAA2
:10208000238D43F040032385BBF1000F10D0EB8874
:102090004BB9E36A93F8A8302BB1B4F80530B4F823
:1020A0000720134304D0B4F809300133A4F80930F1
:1020B000B8F1000F3CD0B4F805300133A4F8053076
:1020C000002384F88B301D4804F046FC029830B1A0
:1020D00013F0ACFB00220272514603F09DFC039BFF
:1020E00033B100221A720C225146039803F062FCAD
:1020F000002F7FF4C2AE238D1B063FF5C0AE8020BB
:10210000FFF7A4FA238D43F080032385B7E6002E62
:102110003FF4E4AE0A49A1F1200015F099FBDDE699
:10212000002EA7D00649A1F1200015F091FBA1E7F0
:10213000B4F807300133A4F80730C4E7101D0020BD
:10214000301D0020064B10B593F8382002F0FF0434
:1021500022B91C7604F054FD204610BD0C24FBE788
:10216000E41C0020094B0A4A10B51A60FFF7EAFF89
:1021700020B14FF4B1712720FEF786FB054C02F029
:102180007FFC606502F080FCE06510BD182900202E
:10219000D0230000E41C0020F8B5794C054694F8E3
:1021A000386006F0FF0016B909B102B123B94FF447
:1021B00020712720FEF768FB63639DF81830616289
:1021C00084F88A30E26384F8300084F88B0084F865
:1021D000310084F888006084208584F8400084F809
:1021E000410084F8800084F839006066E066A4F855
:1021F00070006064E064A4F85000E56209F0F2FC4D
:102200000AF008FB95F9280109F050FDD5F8D460D3
:10221000D5F8CC0009F050FD304609F0F1FE95F8F4
:10222000250009F053FDB5F8E030622B03D9B5F86D
:10223000E230622B01D809F031FCE36A93F8A86020
:10224000002E40F0858018F00BFC95F820214D4BB6
:102250004FF47A7153F8223003F5FA73B3FBF1F3BC
:1022600052331918304609F03FFD474B186809F002
:10227000CDFED5F8C030C4F88430D5F8C430A3679B
:10228000AB7B243B072B6BD9EB7B243B072B67D91C
:10229000B5F8F230B5F8F80095F82011984228BF4B
:1022A0001846042908BF032117F04FF9034695F893
:1022B000F400984228BF184695F8F03080B2984252
:1022C00000D3C3B295F8211105F1E80084F87F30FE
:1022D00017F090FE95F821112F7D0329B5F8FC60C9
:1022E00008BF042117F031F90FB9043080B28642DB
:1022F00028BF0646F6B284F8896003F0E1FB28B1F6
:1023000003F0E4FB864238BF0646F6B284F8586014
:1023100015F0A1FAE36A93F8A8301BBBEB7C13B16C
:102320002846FFF7EFFA0120FFF784FB0023236024
:102330006360A360EB886380B5F8AA30238095F8CA
:1023400025302371D5F824310BB101221A60F8BD74
:1023500018F086FB95F8212100F17101012082E738
:102360001B23AFE72B7D13B12846FFF74FFA01205F
:10237000FFF7F2F9E36AD3F8F00109F079FED5E747
:10238000E41C00202C02040018290020014B93F8C3
:1023900088007047E41C0020054A138D92F88000E5
:1023A00003F4805110B113F4C06F00D1080B7047D3
:1023B000E41C0020024B93F82900C0F3C0007047D2
:1023C000E41C0020014B93F88B007047E41C0020B4
:1023D000E1170000211D000059180000B916000087
:1023E000343270B5054692B20C461E4613F0D6FA4A
:1023F00025B1034A556014745674147070BD00BF43
:10240000881D00200138C0B2032808B504D94FF454
:102410003F710620FEF738FA014B185C08BD00BF7B
:1024200060FF03000138C0B2032808B504D94FF497
:102430003F710620FEF728FA014B185C08BD00BF6B
:102440007DFF03000138C0B2032808B504D94FF45A
:102450003F710620FEF718FA014B185C08BD00BF5B
:10246000E0FF03000138C0B2032808B504D94FF4D7
:102470003F710620FEF708FA014B185C08BD00BF4B
:10248000D9000400F0B5284AA7B004460D461068EC
:102490006B46516802AE0F2203C300210DF1890083
:1024A0001AF008FB0021102230461AF003FB16AB8D
:1024B000DDE9000183E80300234618AC03F1280797
:1024C0001868083353F8041C2246BB4203C2144662
:1024D000F6D1802306AA8DF88830002302F8013B4C
:1024E0000133102BFAD196E80F0012AC84E80F00EC
:1024F0000AAA214606A813F099FB01230EAA214639
:1025000006A88DF84B3013F091FB2A460EA90AA8B5
:1025100004231AF012FA042305F1100229460AA82E
:102520001AF00BFA27B0F0BD64FF030008B50BF0FA
:102530008FFC28B9034B1868BDE8084013F049BD6B
:1025400008BD00BF4C1E0020F7B50446052900F267
:102550000D81DFE811F00600A900AC000B010B01B2
:10256000A50090F8623223B903B0BDE8F04011F045
:10257000B9BF90F86232052B05D10F220021204609
:1025800013F05BFDF0E74FF40C71806810F0F2FF80
:10259000A368283B184419F0CEFF94F86232032B4D
:1025A00008D094F86232022B04D040F267118E20DA
:1025B000FEF76AF9032384F86232D4F8D4300D218F
:1025C000B4F864222046B3F847301344A381FEF7E1
:1025D000F9FD06460E21FEF79BFD01A90546304692
:1025E00017F019F808B18D21E1E794F85D3240F257
:1025F000712E95F83E710199B5F83821D1F8C810BF
:10260000B5F850014A43B5F83A110EFB00F0B3FBA0
:10261000F7F607FB16335643DBB203F1010C4B43CD
:102620000EFB0363834201D99721C0E7BC45A0EBB1
:10263000030300D0F1B93244904202D8042284F856
:102640006222D5F84C21934218D2042284F86222E7
:1026500023F07F43D4F85022204663F31702C4F8D6
:1026600050220BF047FA60B9204603B0BDE8F040B5
:1026700013F0AFBC0EFB01F18B42DEE722F07F438B
:10268000E8E720460BF052FB0028EDD0394811F066
:102690006BFE384811F076FE374B1C6003B0F0BD7E
:1026A0000BF0E6FB032269E74FF401717FE7FF239C
:1026B00080F8673290F8623203F0FF0213B980F8B5
:1026C0006722EBE790F86232052B07D10322002145
:1026D00013F0B3FC002384F86732F2E7302301A93A
:1026E00080F82032B0F86032ADF804300BF0C0F85A
:1026F000BDF804300228B4F86022A3EB020384F88A
:10270000B030E7D001282DD1042384F862320D21A6
:102710002046FEF757FD0E210546FEF7F9FC94F81A
:102720005D3290F83E21B3FBF2F102FB113301332D
:10273000DBB29A4202D0042384F86232D4F8D43057
:102740002946B4F864222046B3F847301344A381E5
:1027500013F032FC94F86232042BBBD1204613F004
:1027600003FBB7E720460EF0F5FED0E740F20A2162
:102770001DE700BF2D2500004C1E0020014B024A22
:102780005A6070474C1E002049250000024B02464B
:102790001830596819F0FEBF4C1E0020044A054B42
:1027A000518B1A609980D18A928BD9801A81704797
:1027B000E6110020541E0020014B1868704700BF2E
:1027C000541E002008B5034610465A1E032A10D88E
:1027D0004A1E032A0DD8084A012951700CBF002156
:1027E0000A211071937091721946FEF7C3FE002002
:1027F00008BD6FF01500FBE7E6110020074A537A89
:1028000040B143F00403002953720CBF0023072397
:102810005371704703F0FB03F5E700BFE61100209A
:1028200040EA4100014BD870704700BFE61100201C
:1028300014280BD028280BD00A280BD10323064AD2
:102840000020528B1340054A938070470223F6E71D
:102850000023F4E71E207047E6110020541E0020DC
:10286000014B9888704700BF541E002038B50E4DAC
:102870000446AB7A0BB90C2038BD2B68002BFAD07C
:1028800018F0B8FA0028F6D17F2C09D8EB8834EA82
:10289000030007D1054B2A89DC8214409C83EBE7B7
:1028A0001E20E9E71120E7E7541E0020E611002072
:1028B00070B506680D4604460E21B6F8AA00FEF76C
:1028C00027FC074980F8BD50B43017F0DBFA00232D
:1028D00086F84D312046BDE8704017F01ABD00BFA4
:1028E0006D2A00002DE9F0410768054688460E2153
:1028F000B7F8AA00FEF70CFC0D210446B7F8AA00B1
:10290000FEF706FC002680F86262094904F1B40073
:1029100084F8BD8084F8BE60A4F8C06017F0B2FAF5
:1029200087F84E612846BDE8F04117F0F2BC00BFC1
:10293000B96301002DE9F041056806460F460E21F6
:1029400095F8A880B5F8AA00FEF7E2FB0D21044631
:10295000B5F8AA00FEF7DCFBB8F1000F02D0EB7B64
:10296000452B15D0002384F84571A4F84831A4F80C
:102970004631A8B994F8453104F1B4000B4984F804
:10298000BD30002384F8BE30A4F8C03017F07AFAC6
:10299000002385F84F313046BDE8F04117F0B9BC4F
:1029A00090F86232002BE5D0F2E700BFB963010076
:1029B00038B5036814460D460E21B3F8AA00FEF799
:1029C000A7FBB4B9B0F84831B0F84621A0F84841A7
:1029D0009B1AA0F846411BB290F8A4205AB980F87F
:1029E000A5509C30847283810349BDE8384017F0BC
:1029F00049BA0023F0E738BDB963010010B540883B
:102A00000C460E21FEF784FB90F872305BB980F81B
:102A1000734014B9FF2380F8C23003496A30BDE81F
:102A2000104017F02FBA10BD8B65010070B5066815
:102A300004460D460E21B6F8AA00FEF769FB90F891
:102A40007C304BB980F87D5015B9FF2380F8C53034
:102A50000549743017F016FA002386F84C312046E9
:102A6000BDE8704017F055BC396B010070B50C46DD
:102A70000E210546FEF7A6FB0E210646FEF748FB93
:102A8000002280F8C6203E22A68022702222627098
:102A90002F22A2706A7AE27090F8162102F03F02AB
:102AA000A27190F8F820012AE2714CD190F804212B
:102AB000227290F80821627290F80521A27290F8B3
:102AC0000621E27290F80721227390F809216273BF
:102AD00090F80C21A27390F80B21E27390F80A2170
:102AE000013AD2B2072A96BF1749FF228A5C2274A4
:102AF000D0F8F920C4F81120D0F8FD20C4F8152032
:102B0000B0F80121A4F8192090F80321E27690F89A
:102B10000D21227790F80E21627790F80F21A2778D
:102B200090F81521E27790F8122184F8202090F88F
:102B3000132184F8212090F8102184F8222090F8A5
:102B4000113184F8233070BD6CFF0300502808B5A4
:102B50001DD018D828280CD8092806D9A0F10A02B7
:102B60000C4BD2B2D340DB0707D43221D620FDF77D
:102B70008BFE322801D03C28F7D10A23B0FBF3F0BA
:102B80000138C0B208BD9128EFD10720FAE706202E
:102B9000F8E700BF0104104038B50B6804460E2169
:102BA000B3F8AA00FEF7B4FA90F8163190F8F820BE
:102BB000054603F03F0343EA8213227D637022F04F
:102BC000800203F0C00322750022402BE27640F021
:102BD0009380D0F8F930C4F80230D0F8FD30C4F852
:102BE0000630B0F80131638190F80331237390F817
:102BF0000431637390F80831FF2BA3731FBF90F863
:102C00000531E37390F80631237490F8073163744B
:102C100090F80931A37490F80A31E37490F80C31FC
:102C200090F80B211B0190F80D1102F00F0203F038
:102C300030031343227D22F03F0213432375637D4B
:102C400061F30303DAB2637503F00F03012B08D1BC
:102C5000134690F80E2162F30713637590F80F3155
:102C6000A37595F81201FFF771FFE07595F8130150
:102C7000FFF76CFF207695F81031642B2BD024D809
:102C8000502B2AD03C2B05D81D2B07D80F2B0CD04E
:102C9000142B0AD05D21D620FDF7F6FDA3F11E010D
:102CA000184AC9B2CA40D107F4D50A22B3FBF2F3DD
:102CB000013BDBB2637695F81131142B11D0282B30
:102CC0001CD00A2B1CD04321E5E7782B07D0962B8C
:102CD000E0D10923EEE70723ECE70623EAE7082320
:102CE000E8E70123A37695F815315A1E5342534164
:102CF000227D63F3861222751C2038BD0223F1E782
:102D00000023EFE701041040036810B50C46B3F848
:102D1000AA000E21FEF7FCF9034980F887407E30B7
:102D2000BDE8104017F0B7B86D2A00002DE9F84F44
:102D3000076880460D460E21B7F8AA0097F8A890BC
:102D4000FEF7E6F9044690F8C2A05FFA8AFAB9F1F4
:102D5000000F07D03E6816F480660BD0012630467F
:102D6000BDE8F88FFB7B002BF8D13021B87B13F046
:102D70007AFB064601F0D0FE0B0401F4004B40F153
:102D8000F880D8F80030DA7C002A00F0EE801B7D55
:102D9000002B00F0EA80AEB90D21B7F8AA00FEF7CB
:102DA000B7F950B9BAF1000F0BD005F1010A50463E
:102DB00013F0B3FFD0B91E2604E090F86232002B66
:102DC000F0D00C26B9F1000F05D0FB7B002BC5D14C
:102DD000BBF1000F03D031464046FFF795FF324666
:102DE00040463021BDE8F84F17F0C1BA6B7803F0C8
:102DF000C003402B40F0A3802146504613F0FDFF56
:102E0000002800F0B4806B78C3F3050203F03F01A3
:102E100003F0C003402B40F0928094F817311BB9A7
:102E200094F816318B42C6D1012384F8162184F818
:102E3000F830002384F81731DAF80130C4F8F9309B
:102E4000DAF80530C4F8FD30BAF80930A4F80131D9
:102E50002B7B84F803316B7B84F80431AB7B84F8E3
:102E60000831EB7B84F805312B7C84F806316B7CD0
:102E700084F80731AB7C84F80931EB7C84F80A31A3
:102E80002B7DC3F3030384F80B312B7D03F0300358
:102E9000B3FA83F35B0984F80C316B7DC3F303034E
:102EA00084F80D316B7DC3F3031384F80E31AB7DD1
:102EB00084F80F31EB7D052B35D8013303EB830309
:102EC0005B00DBB284F812312B7E052B30D8013346
:102ED00003EB83035B00DBB284F813316A7E082ABC
:102EE00097BF274B96239B181B7A84F81031AB7E33
:102EF0001BB3012B0CBF1423282384F8113101F0DC
:102F000011FE036813F400631CBF2B7DC3F3801311
:102F100084F81531B9F1000F22D13A23FB734046F2
:102F200017F0FFF91BE7062B0CBF50239123C9E7CD
:102F3000062B0CBF50239123CEE70A23DDE76B78E5
:102F400094F8162103F03F0393427FF434AF00233B
:102F5000012284F8F83084F8172184F81831D9E771
:102F60003B6843F480633B60D9E72F262AE720269D
:102F700028E71A26B9F1000F7FF427AF2FE700BF2B
:102F80006CFF03002DE9F041D0F8008004460F46A5
:102F900098F80F6076BB01F0BFFD0B0406D41A222F
:102FA00020463921BDE8F04117F0E1B92368DA7C09
:102FB000F2B11A7DE2B10E21B3F8AA00FEF7A8F82B
:102FC000054600F1E20300F1DA0200F1CA013846D9
:102FD00016F03DFE05F18800074916F059FF3C2325
:102FE000204688F80F3017F09CF93046BDE8F08194
:102FF0002F22D5E70126F8E7836F0100036810B59B
:103000000C46B3F8AA000E21FEF782F8034980F8B7
:103010009A409130BDE8104016F034BF016F0100B6
:103020002DE9F74F1E46136883461546376800930F
:10303000BB4204D94FF48D71D320FDF725FCD1F8A4
:1030400000A09AF82B0102F099FA04460AF1E80070
:1030500016F0CEFFDAF8E830610098421FFA81F8E6
:1030600038BF1846414600F2BF19484610F082FAB0
:103070009AF820212D4B00F11004DAF8C8004146DF
:1030800053F822304FF47A724C4403F2E733B3FB27
:10309000F2F3DBF84C2190332732AF2B024438BFD8
:1030A000AF23B2FBF0F25043019310F063FA9BF8A8
:1030B0003E218146BBF83A014146019B5043DBF873
:1030C0004C2102F1480B40F2712202FB00BBDAF8FE
:1030D000C8009B4410F04EFADAF8C810D9444844AE
:1030E00081429CBFB0FBF1F301FB1300009B081A67
:1030F0000139814228BF01468C4228BF0C46A342B9
:1031000038BF2346BB421C4628BF3C46A1422C6028
:1031100038BF2146B94228BF39468C42316002D9B6
:103120004FF4B27188E703B0BDE8F08F2C020400C1
:1031300070B5441EE5B21F2D0ED8A1F2E2460D4D2A
:10314000AE4209D840F27126012806FB02F505D0EF
:1031500001F19602954203D2002009E0002AFBD13A
:1031600006FB03F005FB0411884234BF0020012058
:1031700070BD00BF1D043D0073B5066805460E21F5
:10318000B6F8AA00FDF7C4FF2F4B4FF4FA720446BD
:1031900090F82C11CDE90023D0F8282113F032FF4C
:1031A000C4F84C010FF08EFB84F83E010FF090FB49
:1031B000294601AB6A46A4F83A012046FFF730FFE2
:1031C000009B019A23F07F43D6F8C80094F83E1183
:1031D000C4F8303122F07F433D32B4F83A5101391E
:1031E000D4F84C610244C4F83431694340F271258B
:1031F000324405FB0122B4F81C11B2FBF0F201329B
:10320000A4F85011A4F83821B4F82221012A18D0CA
:103210009533034405FB0133B4F82011B3FBF0F3FD
:103220009BB28B4238BF0B46A4F8523194F82C3134
:10323000A4F8542184F856310F2384F85A3102B08F
:1032400070BD0023F0E700BFFF083D002DE9F04FFF
:10325000D0F800A08DB007460C46BAF8AA000E219F
:10326000FDF756FF0D210546BAF8AA00FDF750FFFD
:103270003B6881469AF80E0093F8A880B8F1000FD9
:1032800020D1322113F0EFF8064695F8C8305BB331
:103290006A4605F5AE7105F1F8000FF0C9F89AF825
:1032A0000F30002B40F03B8101F036FC0B0425D49D
:1032B0001A223221384617F05AF8064630460DB029
:1032C000BDE8F08F33280CBF2A260026B9F1000F85
:1032D00008D099F8628208F1FF32D2F1000848EB79
:1032E0000208D2E7C846D0E76B46D5F8F900D5F812
:1032F000FD10B5F8012103C31A80D0E795F8C4305A
:103300000BB92F22D5E70EB13246D2E7637895F894
:10331000162103F03F03934243D195F8F830012B77
:103320003FD195F81761002E3BD13A686388D18868
:103330005B1A1BB2002BB8BF5B429BB2B3F5804F48
:103340002FD263792179774841EA0321A37941EAB1
:10335000034101F18073A3F5FA7323F07F438342A5
:103360001FD8207AE37943EA0023607A43EA0043D6
:10337000994216D8D2F8C8209A4212D9A37C617C0F
:10338000E07C41EA0321B4F80F20638941EA00415F
:10339000A07BFFF7CDFE20B1E28AA38A012A02D1E9
:1033A0001BB11E2285E7002BFBD0A389002BF8D090
:1033B000237F03F00F02042A01D90F2AF1D14F2BEA
:1033C00003D903F0F003F02BEBD1237E072BE8D8D1
:1033D000A07E16F03CFF0128E3D1A37E082BE0D8A5
:1033E000607E0F28DDD816F032FF8346FFF7E4F940
:1033F00043785B45D5D395F80C11207E0EF038FD4F
:103400008345CED368460FF0C3F808B9482250E789
:10341000A28A47F6FE739A4216D8FFF7CDF9222208
:103420008346002103A819F045FB3F4B5A46217EF5
:10343000039303AB95F80C0113F0C1FF20B1A17EFB
:10344000386813F064FE08B9202232E7B9F1000FA2
:1034500007D099F8623223B1B8F1000F01D10C22E4
:1034600027E73F2328468AF80F306279237943EA19
:103470000223A27943EA0243227AC5F83031E37984
:1034800043EA0223627A43EA0243C5F83431227CDC
:10349000E37B43EA0223A5F83A31A37B85F83E316A
:1034A000627B237B43EA0223A5F83831A378E278D4
:1034B00043EA0223A27CA5F83C31637C43EA022361
:1034C000E27C43EA0243C5F84C31627D237D43EA46
:1034D0000223A5F85231E27DA37D43EA0223A5F839
:1034E0005431E27AA37A43EA0223A5F85031A37E4D
:1034F00085F85731E37E85F85831237E85F85631BB
:10350000637E85F85A31396813F0CDFD05F1AA00C4
:10351000064916F0BDFC384616F003FFCEE601263C
:10352000CCE600BF0B073D0000040400377001002B
:1035300003682DE9F047DA7B06460C46422A40F044
:103540009D800027DF7316F0FEFE33680E21B3F86E
:10355000AA00FDF7DDFD637890F81621054603F01B
:103560003F03934240F0958090F8F830012B40F0F3
:10357000908090F81731002B40F08B803168628882
:10358000CB88D31A1BB2002BB8BF5B429BB2B3F5FA
:10359000804F7ED2B0F83C31D21A130479D46279CC
:1035A0002379634843EA0223A27943EA024303F101
:1035B0008072A2F5FA7222F07F42824269D8D1F875
:1035C000C8209A4265D9D5F83021934261D3D5F805
:1035D000342193425DD8637B217BA07B41EA0321A8
:1035E0006289B5F8503141EA0041607AFFF7A0FDE9
:1035F00000284ED0B4F80730002B4AD0E07B0728D3
:1036000047D895F80C8195F856A141460EF030FC4C
:103610008146414650460EF02BFC814539D1B8FA1F
:1036200088F8E07B4FEA581841460EF021FC8146AD
:10363000414650460EF01CFC81452AD8207C16F0ED
:1036400006FE012825D1217C082922D8627B237B14
:1036500043EA0223A27B43EA0243D5F84C2193427A
:1036600017D86289B5F83A319A4212D3306813F00C
:103670004EFDB0B96FB1002220210CE09B7B3E2BA8
:1036800054D116F046FE3368002283F84E210127FC
:103690005BE700221E213046FFF78AF90020BDE8D3
:1036A000F087227C4FB995F857319342F1D195F9C3
:1036B000581194F911309942EBD161793046237950
:1036C00043EA0123A17943EA0143C5E94C33E17A96
:1036D000A37A43EA0123A5F83A31637A85F83E31AB
:1036E000217AE37943EA0123A5F83831A378E17818
:1036F00043EA0123617BA5F83C31237B43EA0123A4
:10370000A17B85F85721012243EA01430021C5F836
:103710004C31637C85F85831E37B85F85631FFF7EF
:1037200047F93168284613F0BEFCB7E70120B6E739
:103730000B073D00304BF0B5B0F86C700C461146ED
:10374000DA88B0F86A6085B097421D8928BF1746AD
:10375000964228BF16461B2E2ED0B5F5A47F2DD03D
:1037600040F6480301AA9D4228BF1D4614F091F877
:10377000BDF80A30BB4228BF3B46E380BDF80C30A1
:10378000AB4228BF2B462381BDF80630B34228BF89
:1037900033466380BDF80830AB4228BF2B46A38078
:1037A000FF232370E3881B3B9BB2E02B08D940F238
:1037B00002513920FDF768F81B2FCED105B0F0BDBE
:1037C00063881B3B9BB2E02B02D940F20451F0E727
:1037D000238940F64812A3F5A4739BB2934202D901
:1037E00040F20651E5E7A388A3F5A4739BB2934288
:1037F000E4D94FF4A161DCE7601E0020F7B5002397
:1038000004460E461746CDE900336846FDF7BAFC7C
:1038100008B100201AE0009DA542F6D0304605F11F
:10382000AD0314F020F8394695F8AC2015F0EFFD03
:103830000028EAD005F1B40395F8B32004F1B401EF
:1038400094F8B30015F0E3FD0028DED003B0F0BD1E
:10385000054A516A02F11D03127F11F8030BC0F3F0
:10386000801015F0D4BD00BFD023002010B5032177
:103870000020FDF74DFC044670B90321FDF70CFC58
:10388000044620B940F21E313920FCF7FDFF034BFE
:1038900093F9701017F020FC204610BD601E002028
:1038A000014B5888704700BF601E0020044BD87B36
:1038B000C0F3400080F0010000F00100704700BF3D
:1038C000601E002038B515F0A1FD002501F0B0FC08
:1038D000214C01F04DF916F0B6FA03F051F901F060
:1038E000A9FE07F081FB012001F0D2F81B4B1C4A16
:1038F00029461D604FF01B13A4F86850A58184F879
:103900003650E573C4E900234FF4A4731022A3607A
:103910004FF479432361134B58681B89A06304F16A
:103920004000A38719F0C6F8012342F2107204F197
:103930005E0084F840306375C4E9112218F09DFBE5
:1039400004F1500018F0BFFB0022002384F88050DF
:10395000C4E91E2338BD00BF601E00201C290020C2
:1039600003021B007DFF0300064B41F64C521B2156
:103970001A629973C3E9062241F288325A62FFF74C
:10398000A1BF00BF601E0020F0B53D4D85B000F125
:10399000A8070446AB69C0F8E8302B7C003B18BF91
:1039A000012380F82931374BC0F8C830384617F06A
:1039B00063F9064601F0B0F88306A97B53BF1B23C9
:1039C0006B88AA881A46A4F812312F4BA4F8142148
:1039D0001B6884F8F010A4F8F26023B194F9281160
:1039E000B4F8AA00984703A8039413F03AFF274BB2
:1039F0001B681BB12649B4F8AA00984725493846E8
:103A000015F074FB0123A4F8DE30234B1B681BB1B7
:103A10000021B4F8AA009847204B1B681BB1002175
:103A2000B4F8AA0098471E4B1B6813B1B4F8AA005B
:103A300098471C4B1B6813B1B4F8AA009847AB8891
:103A400004F1C0006A8869780333033201919BB2A4
:103A5000297892B2009104F1C401FDF7F3FBD4F888
:103A6000C03023B940F2DB413920FCF70DFFD4F818
:103A7000C43013B940F2DC41F6E705B0F0BD00BF39
:103A8000601E002000093D0030290020242900206C
:103A9000881E00206A1E00204429002038290020AA
:103AA0003C290020402900202DE9F34104460E4620
:103AB00017F053FB002800F09680204617F0C2FC58
:103AC00040B1B6F80130013B7F2B03D9122002B080
:103AD000BDE8F081204617F0B9FC08B90C20F6E7E4
:103AE000204617F09DF90028F8D1204617F0DEFA9D
:103AF00080460028F2D1204605F09AFB0028E5D048
:103B000042F21073B6F80170F17820465F4317F067
:103B100084FC04213078FDF7FBFA05460621307855
:103B2000FDF7F6FA2DB140B141F678213920FCF7C6
:103B3000ABFE18B3054690F8E5802C4E3368EBB128
:103B40004035284616F03FFFC0B1284616F02CFF3E
:103B5000A0B9B8F1000F07D0254B28461B6898473D
:103B600060B141F68C21E1E722494246336828469C
:103B7000096A984710B141F69121D7E7204617F01E
:103B800059FC014638B93A46204603F03FFD40B3A0
:103B900041F69A21CAE702210DF10600FDF744FA29
:103BA000054608B90D2092E7BDF8061015F064FD32
:103BB0002946204617F071FC2846FFF7E5FE3A46F5
:103BC0002946204603F022FD024610B141F6B621F7
:103BD000ACE7084BDB6E23B105F5977105F1A80042
:103BE0009847002073E7422071E700BF202900209A
:103BF00028290020601E0020024B1B6803B11847D3
:103C00000C2070471C290020034B5A8802801B7827
:103C100083700020704700BF601E002073B583785A
:103C200006461A2B08D8042B04D9334A22FA03F388
:103C3000DB0705D412251AE0292B01D03B2BF9D143
:103C40003088B0F5706FF5D2694615F0E4FC88B99C
:103C5000009B93F82C2102F0FF05C2B9B27883F8DB
:103C60002D21FF2283F82C21684614F013F82846F2
:103C700002B070BD09213088FDF74AFA04460028D9
:103C800037D001A9B0F8AC0115F0C5FC08B10C257E
:103C9000EDE70821B4F8AE01FDF73AFA20B940F695
:103CA00039013920FCF7F0FD03781BB994F8C831CD
:103CB000032BECD1019B93F84221002AE7D194F821
:103CC000F02102F0FF05002AE1D1B4F8B021A3F8F9
:103CD000442194F8B82183F84621027D83F84721D6
:103CE000B27883F8482184F8F021FF2283F842213A
:103CF000BDE70225BBE700BF200038040188A1F121
:103D00001B039BB2E02B0CD8428844F24810A2F56A
:103D1000A4739BB2834204D8034B0020D9801A813C
:103D200070471220704700BF601E002038B502782F
:103D3000447802F0010302F0020254EA030101D1C7
:103D4000112038BDBAB98578002DF9D0002B18BFE5
:103D5000002400E01D46204613F026FE0028EFD088
:103D6000284613F021FE0028EAD0054B00209C7263
:103D7000DD729881E5E7002BECD000242546EAE7C8
:103D8000601E002013B5008801A915F066FC0446EA
:103D900020B9019890F83E311BB13A24204602B078
:103DA00010BD90F8603003F0FF04002BF5D190F8BF
:103DB00057309B0706D1FF2380F83E3101A813F04E
:103DC00069FFEBE70249583016F065F8E6E700BFF7
:103DD000E7A8010037B5837805460A2B39D801A931
:103DE000008815F018FC044670B912212888FDF7E8
:103DF0008FF920B941F2DA513920FCF745FD019BDA
:103E000093F840211AB10C24204603B030BD827AC9
:103E100002F0FF04002AF6D1019A92F8691009070E
:103E200006D4FF2283F83F21FF2283F84021EBE7ED
:103E300092F86D20D20907D0027BAD78417BAA426F
:103E400028BF2A469142EFD30349023016F01AF8F0
:103E5000DAE71224D8E700BF31C10100F7B50678D0
:103E600004460F46EF2E03D91226304603B0F0BDAC
:103E700090F901204378002AF6DB82789207F3D18B
:103E800013F010001DD19D0603F0030216D5002A81
:103E9000EAD11907E8D42179E278E57942EA0122EA
:103EA000617942EA0142A17941EA0521257A41EA94
:103EB00005418A42D8D81F2A12D8D5E7032AE8D16B
:103EC000D2E713F0600FCFD103F00702052A05D027
:103ED00003F00F010D22CA40D207C5D51D07DAD560
:103EE000627A013A062ABFD8A27A032ABCD813F014
:103EF000040302D1023A012A03D8E27A012AB3D894
:103F000013B9A37C032BAFD8237DF8B1012BABD120
:103F1000237E012BA8D818B36378D90702D500F007
:103F200043FD20B36378227D03F01803082B2ED1C4
:103F3000022A1CD103213046FDF7EAF8054660B39A
:103F400016F06EFF002834D00C268EE7022B8BD0A3
:103F5000A37D013B022B87D8E37D0F2BD8D983E7C4
:103F600000F0F8FD820707D4237D022B01D1112632
:103F70007BE7A37D022BFAD000F0ECFD4307CBD406
:103F8000237D032BF3D0A37D032BC5D1EFE7022ABA
:103F9000D0D0237F002BCDD0E9E703213046FDF7B9
:103FA0007BF80546002843D0224B93F9701017F098
:103FB00093F80021304617F0D4FC28BB284617F0B0
:103FC00036FA21463870E074284617F018F9E37E77
:103FD0000646002B3FF449AF00287FF446AF024667
:103FE000E96C6846FDF70EFA3246E86C012111F0E3
:103FF0002AFDE96C68460422FDF704FA3246314690
:10400000E86C11F020FD30E7403016F0DCFC0028B1
:10401000D4D0637813F0330F7FF426AFA67D284603
:10402000296A17F026FAFEF7FDF98642C6D08BE71B
:1040300007261AE7601E002030B502798BB00346D0
:10404000042A4FD84088B0F5804F4BD82649002429
:104050001144ADF800408DF808408A7C4D7B42F059
:1040600010028DF8244042EA4502CD7D097F42EAE4
:10407000850242EAC102694602F01F028DF8002063
:10408000BDF80020ADF809201A888DF80E00000A4E
:104090008DF80B20120A8DF80D408DF80C208DF84C
:1040A0000F008DF810405A7BD3F807008DF81120CF
:1040B0005A79059002A88DF812209A798DF813206C
:1040C000B3F80B209B7BADF818208DF81A307F23B6
:1040D0008DF81B304FF00113CDE90734FFF7BEFE1A
:1040E0000BB030BD1220FBE77DFF030002780346D2
:1040F00072B1427862B142881A2A09D982881A2A92
:1041000006D90068034A106000209B88938070479E
:1041100012207047601E002002680020014B9A6147
:10412000704700BF601E00200378A3F10A02112A25
:104130009BBF024A0020122093737047601E00202C
:10414000014B587400207047601E0020014B98748A
:1041500000207047601E0020024B1B6803B1184707
:10416000112070474829002008B5052000F09CFC6C
:1041700006F04EFD014B024ADA6608BD601E0020C3
:104180003537000008B5212000F08EFC222000F019
:104190008BFC06F049FD054B054A1A60054B064AA3
:1041A0001A60064B064A1A6008BD00BF2C29002081
:1041B000BDBE0100302900201DAE000034290020C2
:1041C000E9BD010008B53F2000F06EFC01F0D6FE0D
:1041D00002F0F2FA06F070FD014B024A1A6008BDC7
:1041E0003C290020F9AF000037B5044600F094FCEC
:1041F000090403D40C24204603B030BD258801A94E
:10420000284615F02AFA04460028F4D1019BDA7CEE
:10421000002A36D01A7DA2B393F869201207E9D597
:1042200093F86B30DB09E5D00E212846FCF770FFD0
:10423000054690F8C230002BDCD0B0F85A309B070E
:1042400013D590F87C30002BD5D11123482221467C
:1042500080F87D3018F02EFCFF2385F8C5300B491F
:1042600005F1740015F00EFEC5E70198492210F81B
:10427000A81F01F031FC30B9019BFF2283F84C21CB
:10428000B9E72F24B7E74524B5E700BF396B010034
:104290002DE9F04FB0F8008091B004460FA94046D8
:1042A00015F0DBF9064638BB0F981C2210F8A81F42
:1042B00001F012FC18B1E378012B00F082810E218D
:1042C0004046FCF725FF054690F8C63003F0FF0690
:1042D000002B40F078810F9BDA7C002A00F075817A
:1042E0001A7D002A00F0718193F86B30DB0907D149
:1042F000E378012B04D10C26304611B0BDE8F08FD5
:1043000095F8C230002BF6D0617904F10D07A07842
:104310000D91217BE27D0139237994F806E0C9B241
:1043200094F8079094F808A0022994F809B097BF70
:10433000DFF8A0C2FF218C449CF8211094F81AC029
:10434000CDF828C094F819C0CDF824C094F818C04E
:10435000CDF820C094F80AC0CDF81CC094F80BC06A
:10436000CDE9051C0D99CDE903AB00913946CDE9A6
:1043700001E912F076FC002800F02981E378012B96
:1043800000F22581A37AA3B995F8F23013F0010F5A
:1043900000F01D81FEF710FA237E81460193237BF6
:1043A0000093E37A6279217912F0F7FC40B9112683
:1043B000A2E7012BEED195F8F23013F0020FE7E7F8
:1043C000237E05F148000193237B0093E37A627911
:1043D000217912F0E2FC0028E9D0A27A002A7CD1EF
:1043E00095F84B3013F0020FE1D005F1F80013F00F
:1043F00040FA20B195F81611A3789942D7D1E37EFF
:10440000D90705D5012A6FD1B9F81230DB06CED510
:104410000D214046FCF77CFE13F034FA00287FF4AF
:104420006AAFA37885F81631D4F80D30C5F8F930A5
:104430007B68C5F8FD303B89A5F80131E37D85F83F
:104440000331237985F804316379FF2B85F808312E
:1044500017BFA37985F8050185F80531E07985F85E
:104460000601237A85F80731637A85F80931237BC1
:10447000013BDBB2022B96BF564AFF239B184FF03D
:10448000070298BF93F8213085F80A31E37A85F85E
:104490000B31A37A85F80C31237E85F80D31637ECC
:1044A000B5F85C1085F80E31A37E85F80F31E37EF8
:1044B00003F0010385F81531B9F8140012F02BF957
:1044C00095F815318046002B5ED0A37A072283B978
:1044D000B5F86410B9F816000FE0012A85D195F8F7
:1044E0004B3013F0010F7FE7002A91D1B5F85A3015
:1044F0008CE7B5F85E10B9F81C0012F00CF909222F
:10450000B5F860100746B9F8180012F004F98146B2
:10451000FEF7A6F90222B5F8621012F0FCF8B8F125
:10452000050F35D808F1010808EB88084FEA48085C
:104530005FFA88F8052F85F8128131D8013707EB2B
:1045400087077F00FFB2B9F1080F85F8137197BF95
:10455000204B96234B4493F8243085F8103120B338
:1045600001280CBF1423282385F81131FF2285F878
:10457000C620E378012B1AD185F8F83085F8173179
:104580000F9B83F84D21B7E60722B5F85E10A1E72F
:10459000B8F1060F0CBF4FF050084FF09108C9E773
:1045A000062F0CBF50279127CDE70A23DCE7012314
:1045B00000210FA885F8F83085F81711FEF7A4FB45
:1045C0009AE6452698E63A2696E62F2694E612269F
:1045D00092E600BF7DFF030073B504460DF0D8FFDF
:1045E00000285FD017F0A5FF304A92F8803053B111
:1045F0002F4ED2E91E35C31A61EB05059E424FF0DE
:104600000003AB4150D2012382F880300023C2E97D
:104610001E01CDE900336846FCF7B4FDD0B100209F
:104620004FF40033CDE900036846FCF7ABFDC8B199
:104630000023CDE900336846FCF7A4FDC0B1002299
:104640004FF40033CDE900236846FCF79BFDE0B151
:10465000002005E0009B93F85031002BDBD03A207E
:1046600002B070BD009B93F85031002BDCD0F6E710
:10467000009890F86B305906DDD5234600F5967208
:10468000B0F8AA1013F0DFF9D5E7009890F86B3076
:104690005B06D9D5234600F59672B0F8AA1013F040
:1046A000D2F9D1E71220DBE70C20D9E7601E002009
:1046B0003F420F0003882DE9F7439FB204460B8069
:1046C000B7F5706F04D31226304603B0BDE8F0830F
:1046D00001A9384614F0C1FF06460028F4D10E2186
:1046E0003846FCF715FDA37890F8162105469A4246
:1046F000E9D1F83013F0BDF80028E4D0032AE2D85D
:10470000B4F80330002BDED0B4F80930012B09D007
:10471000B4F80520002AD6D0B4F80730002BD2D048
:104720009A42D0D8237BE27AE17B42EA0322637B80
:1047300042EA0342A37B43EA0123217C43EA01438B
:104740009A42C0D802F180725C49A2F2E24222F0A1
:104750007F428A42B7D803F18073A3F2E24323F089
:104760007F438B42AFD8637C072BACD8A37C013B43
:10477000032BA8D8207D0F28A5D895F80C9115F00B
:1047800066FD8046607CB9FA89F149090DF070FB3D
:10479000804598D3637D053BDBB2F92B93D9A37D8C
:1047A000053BDBB2F92B8ED90D213846FCF7B0FC66
:1047B00013F068F800287FD1FDF7FEFF0746207D43
:1047C00015F045FD95F84930834201D20D267BE76F
:1047D00005F148033A46617C95F80C0112F0EFFDB3
:1047E0000028F3D0B4F8037040F27123B4F8090044
:1047F000BAB25A4383B2012B5BD0019BB4F805C017
:10480000D3F8C8E0BCF57A7F61460EF1FF3328BFCC
:104810004FF47A711344B3FBFEF30133B4F807E0AD
:10482000B3F57A7F28BF4FF47A739BB2734528BFE4
:104830007346634538BF634694F80CC094F80BE0A8
:1048400094F80F804EEA0C2E94F80DC04EEA0C4EF0
:1048500094F80EC04CEA082C94F81080A5F81E11AC
:1048600047F6FE714CEA084CA5F81C718B42A5F87E
:10487000220128BF0B46964594BFC5F824E1C5F830
:104880002421944594BFC5F828C1C5F82821A5F86E
:104890002031637C85F82C31A37C85F82D31E37CB5
:1048A00085F82E31237D85F82F31FF2385F81831C7
:1048B0000AE700210B46BFE70C2605E71E043D0072
:1048C00008B50378032B06D8013B022B07D8DFE895
:1048D00003F00C111600FF2B18D01E2008BDD0F8D5
:1048E00001200D4B5A620020F8E74078BDE80840EF
:1048F000FDF79EBFB0F901000DF0C4FFF3E740786B
:10490000003818BF012008F0C3FBECE7B0F8010045
:10491000BDE80840FDF7AABF601E002008B50122CF
:10492000054B1A7104F06EFC05F0FAFA14F0C4FBA2
:10493000BDE8084000F066BFE41E002010B50C2062
:10494000084C00F0B1F8282000F0AEF804F108009F
:10495000054914F057FB04F10C000449BDE8104070
:1049600014F050BBE41E002090110020981100208C
:1049700010B5094C094904F1080014F043FB04F197
:104980000C00074914F03EFB04F110000549BDE896
:10499000104014F037BB00BFE41E0020A01100201F
:1049A000A8110020B0110020014B1879704700BFFA
:1049B000E41E002010B5064C064904F1080014F06E
:1049C00021FB04F10C000449BDE8104014F01ABBAF
:1049D000E41E0020B8110020C011002010B52E20C8
:1049E0000A4C00F061F8302000F05EF84B2000F037
:1049F0005BF804F10800064914F004FB04F1100010
:104A00000449BDE8104014F0FDBA00BFE41E0020C8
:104A1000C8110020D011002038B5074C0D4600F019
:104A2000CDFEA068256014F0E5FAFEF79DFF01F0C9
:104A3000C5F80123237538BDE41E0020014B187D05
:104A4000704700BFE41E002010B50C4CE06814F065
:104A5000D1FA206914F0CEFAFEF734FF202000F0DE
:104A600037F82F2000F034F8262000F031F8292004
:104A700000F02EF80023237510BD00BFE41E0020B7
:104A800000487047F91E002000487047FB1F0020B7
:104A9000014B83F819027047E41E0020014B93F884
:104AA00019027047E41E0020C208074900F0070001
:104AB00001238340885C03438B5404490B78934261
:104AC00038BF13460B70704738110020FE200020BD
:104AD0000F4B012110B503EBD002C40800F0070012
:104AE00001FA00F0195D21EA0001195509490B7816
:104AF000A34205D1002012F8014914B100B10B7096
:104B000010BD002BFAD0013B0120DBB2F3E700BF60
:104B100038110020FE200020014BD3E9000170472E
:104B2000381100200048704740110020064B1878CB
:104B3000072881BF08381823B0FBF3F001308CBF81
:104B4000C0B20020704700BFFE2000200048704720
:104B5000ACFF0300054B1868C0F3C022C0F300206F
:104B6000400040EA820040F0010070473811002008
:104B700008B50EF04BFD0023074A32F8231081429E
:104B800005D302EB83029378044A137008BD013306
:104B90000C2BF2D10023F7E7B0FF0300FF20002029
:104BA000024B1878072828BF07207047FF200020F5
:104BB0002DE9F04F046898460F4685B094F86730A9
:104BC000164604F1A80994F80FA043EAD303D907C5
:104BD00002D4BAF1260F5FD194F8A850002F55D116
:104BE000FFF7B8FF8DF80B00002E51D1FFF7B2FF91
:104BF0002B4B8DF80C00D3F800B0BBF1000F0CD09C
:104C0000AAF1260228464946534253410DF10B02B0
:104C1000009303ABD847054630B99DF80B3013B16C
:104C20009DF80C0028B90925BAF1260F2AD10020D9
:104C3000034694F8292132B19B0700F002002DD5DC
:104C400060B302200346FF2284F8392194F838210A
:104C500002F0FF05F2B99DF8382003A984F83B0162
:104C6000484684F8382184F83A31A4F83C818DF81C
:104C70000C708DF80D60ADF80E8014F037FA00233B
:104C800084F83931284605B0BDE8F08F3846A9E7E9
:104C90003046ADE73A25F2E71A25F3E70925F1E7B3
:104CA0004C29002010B50468B4F8AA3084F88411A7
:104CB000A4F8853194F82001FDF7C4FB84F887013E
:104CC00094F82101FDF7BEFB044984F8880104F241
:104CD0007B10BDE8104015F0DEB800BFD790010092
:104CE0002DE9FF4704688946054694F80EA0AAF10D
:104CF000250359425941052A35D1E37B272B37D16A
:104D000004F10F0799F8018099F8026008F007088C
:104D100006F0070608F1FF33721E03EA080332406B
:104D200013431FD1304614F079FA60B394F8203160
:104D3000984228D094F83A21164213D0BAF1250FA0
:104D400021D094F8192116421DD10138013B474A60
:104D5000C0B2DBB21044032B00790FD81A44137988
:104D6000834210D9284604B0BDE8F04714F01EBABB
:104D7000BAF1250F77D104F10E07C3E74FF4DD71C7
:104D80000620FBF781FD404614F048FA40B194F844
:104D90002131834204D094F83B3118EA030FE1D06B
:104DA000B9F8039003AB20463246009341464B4688
:104DB00014F041FA2C6878BB94F83831012B28D1D3
:104DC000E38804F5367294F82011B4F83C0114F02D
:104DD00093FA0646D0B901462846FFF763FF2B68D1
:104DE00083F838613E702B6803F10F02974201D1BE
:104DF0000022DA732B6803F10F0297422FD1284665
:104E000015F0A1FA002004B0BDE8F0872C23A373AD
:104E1000E9E784F83801E6E7E388A4F8D89209F1D5
:104E2000FF39A9EB030947F6FD731FFA89F9994584
:104E300006D92823284684F8313001F0E1FAD9E771
:104E4000E37B0D2B02D00A3B012B01D82A23F1E78B
:104E5000BDF80C30A4F8DA3229233B70CAE70022EF
:104E600083F84E20CEE70220CDE700BFE0FF03002D
:104E7000034B002283F85020A3F85220704700BF54
:104E800002210020044B93F85020012A1ABF03602E
:104E900001200020704700BF02210020064B02467F
:104EA00093F8501001291BBF0120A3F852200020C5
:104EB00083F85000704700BF02210020054B0246D6
:104EC00093F8500028B1136011B1B3F852300B8041
:104ED0000120704702210020054B002293F850006A
:104EE000A3F8522010B1012083F85020704700BF72
:104EF00002210020034B93F85000B0FA80F04009E3
:104F0000704700BF0221002050B90A4A0120134611
:104F100003F8010B0868C2F801008A889A8070477C
:104F2000012805D1034B0A68D8719A608A889A8152
:104F3000704700BF5621002050B90B4B187888B13C
:104F4000D3F80120B3F805300A6001208B80704748
:104F5000012806D1044BD87920B19A689B890A6050
:104F6000F3E70020704700BF5621002010B9044B22
:104F700018787047012806BF014BD8790020704788
:104F800056210020F7B58A8800238DF80600ADF879
:104F9000042008680B4A8DF807300146147802F5A2
:104FA000A872019DD8B2844201D8082007E052F8C7
:104FB000087F01335668AE4208BF8F42F2D103B07A
:104FC000F0BD00BF68210020084B0146002230B52B
:104FD0001C7903F20713D0B2844201D8082004E000
:104FE00013F8015F01328D42F5D130BD68210020F8
:104FF0002DE9F8432B4C0746257904EB000E013DC3
:105000009EF80861EDB2854225712BD04FEA051854
:105010004FEA001C08F108030CF108090CF1880C98
:105020002344A144A4440FCB89E80F0008F188036E
:1050300023440FCB8CE80F00631993F808218EF8F6
:10504000082106225543574305F5887507F58877EB
:1050500060596219E119E05192888A8093F84031D1
:105060008EF840313046FFF7AFFF082818D123787B
:10507000013BDBB29E42237012D02B3306F12B0290
:1050800004EBC30304EBC20293E8030082E80300CD
:105090002078FFF799FF08281CBF241884F80861BE
:1050A000BDE8F88368210020F0B5254D89B095F85A
:1050B000984105F29911684622460FF02FFF2146CC
:1050C000684614F0C2F90446B8B300EB400102A8E8
:1050D000C9B2FCF795FA631E95F8A1610124DBB211
:1050E00095F8981105E0721CB2FBF1F001FB10225B
:1050F000D6B206F120020DEB020010F8202C002A97
:10510000F1D103EB430100F8204C06EB46022031BD
:105110002A44694411F8187C82F8A27111F8177CAE
:1051200011F8161C82F8A37182F8A411013BAA1988
:10513000DBB282F89941FF2BD2D109B0F0BD00BF9C
:105140006821002070B5064688B00C46002A4ED073
:10515000294A92F8A131D01890F8991119B9FF2174
:105160002820FBF791FB03EB43010133114491F835
:10517000A251E57091F8A35191F8A41125716171C4
:10518000002180F8991192F89811B3FBF1F001FB1E
:10519000103382F8A13192F8C23123B9174902F5D0
:1051A000DD7014F075FE65790D220021684605F06A
:1051B0003F0545F04005657117F07CFCE37804AAD3
:1051C00069468DF80F30304623798DF80D508DF8F3
:1051D0000E30042317F0B1FB9DF81F3023709DF8AB
:1051E0001E3063709DF81D30A37008B070BD0321A0
:1051F0006018FCF705FAD6E768210020A9500000E6
:10520000044B1A79824286BF1B1893F85001002084
:10521000704700BF68210020044B1A79824286BF84
:105220001B1893F848010020704700BF6821002038
:10523000074B00224FF461711A701A7183F8C32171
:1052400083F8C421A3F8C61183F8C221704700BFB8
:10525000682100202DE9F047824689461746984686
:10526000FFF790FE08280546064603D0FFF7ACFE80
:10527000082860D1324C2379072B5ED8082D15D130
:105280002678731C072E237003D96C212820FBF786
:10529000FBFA06F12B02D9F8000004EBC20344F834
:1052A0003200B9F8042083F806A09A80257907F126
:1052B00010026B1C29012371CB1D234412F8010D30
:1052C000BA4203F8010FF9D1873108F110032144E4
:1052D00013F8012D984501F8012FF9D1254410212B
:1052E000404614F0F8F8102185F84801384614F0CB
:1052F000F2F885F808612679002385F850013146D7
:10530000104885F8403114F0A0F80128054607D868
:1053100031460D4814F099F8002818BF0135EDB258
:1053200084F898510025284684F8A151FFF7BCFE67
:105330002846BDE8F0871220FBE70720F9E700BF09
:1053400068210020B0220020B8220020064B10B5B2
:105350001879013840B2002800DA10BDC4B22046E6
:10536000FFF746FE601EF5E768210020014B83F839
:10537000C301704768210020014B93F8C3017047B7
:1053800068210020431E4AF2B7129BB293429DBF90
:10539000024BA3F8C60101200020704768210020BD
:1053A000014BB3F8C6017047682100200A4B30B5A5
:1053B0001C7984420ED9184490F808012B3003EB75
:1053C000C004A5790D7053F8300010600120A38847
:1053D000938030BD0020FCE768210020024607488A
:1053E00010B590F8C34124B1017921B1083005F01E
:1053F0000FFF204610BD0C46FBE700BF68210020D0
:105400002DE9F74F2F4C9A468046894623798342EF
:1054100056D9231893F8485185F00105F9B193F84E
:105420005031E3B945F002070135BAF1000F18D148
:10543000FA070AD5062104EB0810524601FB084181
:10544000883001F58871FFF77DFEBB0734D504EB8A
:105450000810524649460830FFF774FE2CE02F46EC
:10546000E3E794F8A1614FF0010B002DE0D0A31900
:1054700093F89911019399B90092DAB100F06EFB9B
:10548000019B06EB4601009A4FEA102C83F899B174
:10549000214481F8A201000C81F8A3C181F8A40184
:1054A000013694F89831013DB6FBF3F103FB116628
:1054B000F6B2DAE747F00407384603B0BDE8F08FEC
:1054C0000027F9E768210020074B1A79824209D9A1
:1054D0001A1892F848212AB9062202FB003000F57A
:1054E000887070470020704768210020064B1A79A9
:1054F000824281BF1B1893F84001B0FA80F0400946
:1055000098BF0020704700BF68210020F8B50E4604
:10551000074606211546304613F0DDFF044670B1FC
:105520000C4B0022187903F23F13D1B2884202D803
:1055300001242046F8BD013203F8015FF5E731464A
:10554000384613F09EFF0828F3D0024B034483F83B
:105550004051EDE768210020034B80F880101B6864
:105560000BB140881847704750290020014B024A70
:105570001A6070475029002081BB01000B2808B534
:1055800004D940F229112920FBF77EF9014B33F8A9
:10559000100008BDE8FF0300036830B50024D3F80D
:1055A000C80042F21075A3F84040A3F84640B3F893
:1055B00048404443B4FBF1F4A3F848404C1E05FBBB
:1055C0000242B2FBF1F2A3F84220094AB2FBF1F227
:1055D0000132A3F84C209A8F05FB02445A6B5043CA
:1055E000B4FBF1F4B0FBF1F09C63586330BD00BF35
:1055F000005A6202054B1B7833B9054B1A681B79B8
:1056000002600371012070470020704730230020A2
:1056100048110020054BFF221A70054A01681160ED
:105620000179117100221A70704700BF30230020E9
:105630004811002007B5064A1068127900906846A4
:105640008DF80420FFF7E6FF03B05DF804FB00BF10
:10565000298C04000346084671B13F2B0BD8074A3A
:10566000D35C03F07F02914205D08CBF0120002063
:1056700000EAD31070470120704700BF000004000B
:10568000FF230B7002234B7083238B70014B1B781D
:10569000CB707047342300202DE9F84FD0F80480F8
:1056A0000C46D8F81C60304610F0AAF8054620B920
:1056B0004FF4AA711020FBF7E7F80146304610F0CE
:1056C000ADF8B5F800B082461FFA8BF717B94FF462
:1056D000AC71EFE7224B00F103091B68D3B998F8CE
:1056E000023098F803202370637802F00F02A4F8C8
:1056F00002B023F00F03134323F0C00363709AF842
:10570000003003F00303012B0FD0022B0DD04FF418
:10571000BB71CFE73A464946B8F8020098470546BC
:105720000028DCD12846BDE8F88F6278304663F364
:105730000512627010F07CF8054610B94FF4C07184
:10574000B8E7FB2F02D940F28F11B3E73A4649463A
:10575000201D0FF0E3FB30460FF0C1FFE2E700BF72
:105760005429002038B5134C10220021201D17F0B9
:10577000A1F90125257404F108031022002104F188
:105780001400C4E9013317F095F984F8205004F1AE
:105790001803094AC4E9053300236362A36284F84D
:1057A0002C30C4F82D30C4F8313084F83530136013
:1057B000A36338BD342300205429002010B5084CC1
:1057C0002378FF2B04D040F299111020FBF75CF8EE
:1057D0000FF010FB2070BDE81040FFF7C3BF00BF03
:1057E0004D11002010B5034C20780FF01DFBFF2356
:1057F000237010BD4D110020014B18780FF024BB11
:105800004D110020014B024A1A6070475C290020AC
:10581000995600002DE9F341DFF88881054608F12B
:105820001407D8F80830D8F81840227A012A22D173
:10583000D8F8382052B1137A1BB9BF211020FBF7DA
:1058400023F8D8F83840C4B9002093E01A7A012A26
:10585000FAD01C46544AEFF3108172B650680068C3
:10586000506001B962B6A34208BFC8F83840237A35
:105870001BB9EE21E2E73A46EDE7267AF6B20523B8
:105880002372731E0B2B7ED8DFE803F07A062336D3
:10589000773F4E3F3F3F3F6B636813B94FF403714F
:1058A000CCE72046294698470420EFF3108272B6D1
:1058B000237A052BD9B24FF0000369D12372D8F8AF
:1058C0003810A14201D1C8F83830002A45D162B65B
:1058D00043E0636813B940F21521AFE7294620463B
:1058E00098470346ADF80400C0B2C3F30723012B69
:1058F0003ED0022BD9D129E0636813B940F21D21B3
:105900009CE7204698470020CFE7284B1B68002BD8
:10591000F9D03246606829469847A6F10A02042069
:10592000534253415B00E4E763680BB9FE2185E70E
:1059300086222A7001225988AA706A710022986909
:10594000A5F80310AA710FF0CAFE0420D8F8383069
:10595000A34202D10023C8F8383000283FF461AFD9
:1059600008E0134B294620461B689847034668B950
:10597000267298B102B0BDE8F0814FF415715DE771
:1059800040F257215AE740F25A2157E70220DDE75B
:1059900011B940F27B2151E7184696E7002B7FF4BE
:1059A00040AF51E73423002038230020582900203D
:1059B0005C290020134610B5027A22B140F2023170
:1059C0001020FAF761FF0A4601460248BDE8104080
:1059D00014F03BBA38230020044890F82C301BB94F
:1059E0000349243014F04EBA704700BF342300201E
:1059F0003B9E01000346064890F83C203AB190F8DF
:105A0000352022B9034900F82D3B14F03BBA70470A
:105A100034230020815600000A4610B5037A23B1D2
:105A200040F20A311020FAF72FFF014607230248FF
:105A3000BDE8104014F009BA482300201346027A4A
:105A40000AB1037270470A460146014814F0FDB9D5
:105A500038230020014914F01EBA00BFB39E010094
:105A60000B8BA2F809001046A2F80B304B8BA2F862
:105A70000D308B8BA2F80F30CB8B0249A2F811307E
:105A800014F003BA5D9F010008B50B4A0B460B49A1
:105A900070B1492B04D940F2DA212C20FAF7F4FE38
:105AA000012008701178994238BF1946117008BD5D
:105AB00008701B21FAE700BF4E110020712300205F
:105AC000014B1878704700BF71230020014B1878F4
:105AD000704700BF4E1100202DE9F04704461746DD
:105AE00090F878908A4690F87980858F59BB468FD8
:105AF000043613216088B6B2FBF70AFB40B3BAF153
:105B0000000F22D194F8781014F002FAB0F804A033
:105B10004946384614F0E4F90F4B0746B4F85400F0
:105B20001B78063541469842354438BF18465544DF
:105B300014F0D6F938440544206AA8422CBF00204E
:105B40000120BDE8F087068FD2E794F87910DBE7F3
:105B50004FF0960ADCE700BF4E110020094AD2E957
:105B60000003434083EAB01181EA43214FEAF34343
:105B700011605360044B58434FEAF06000EB800023
:105B8000704700BF74230020BB79379E094AD2E9D1
:105B90000003434083EAB01181EA43214FEAF34313
:105BA00011605360044B58434FEAF06000EB8000F3
:105BB000704700BF50110020BB79379E10B50A4CCA
:105BC00008210948FBF71CFDD4E900321343F7D044
:105BD000064CFFF7DBFF2060FFF7D8FF236860600B
:105BE0001843F6D010BD00BF5011002074230020D0
:105BF00038B5A0F10B0314460D46DBB22046432B0B
:105C000096BF0C4AFE21D15C14F043FB88B985B1E4
:105C10002978342909D03F2909D0272908BF26210E
:105C20002046BDE8384014F034BB3221F8E73E216D
:105C3000F6E738BD400004000A4B0B4A1A600B4BD4
:105C4000C0F88C300A4BC0F890300A4BC0F8943042
:105C5000094BC1F88C30094BC1F89030084BC1F8A2
:105C600094307047702B0020ABBB0100A5BF010032
:105C700091AE000075AD000077BF0100FDBF0100CF
:105C800045C00100284B294A1A60294B294A1A604D
:105C9000294B2A4A1A602A4B2A4A1A602A4B2B4A55
:105CA0001A602B4B2B4A1A602B4B2C4A1A602C4B38
